:100000000C948C020C94A9020C94A9020C94A902E1
:100010000C94A9020C94A9020C94A9020C94A902B4
:100020000C94A9020C94A9020C94062A0C94C229DF
:100030000C94032B0C94A9020C94A9020C94A90211
:100040000C94A9020C94A9020C94A9020C94A90284
:100050000C94A9020C94DF2A0C94A9020C94A90216
:100060000C94A9020C94A9020C94A9020C94A90264
:100070000C94A9020C94A9020C94A9020C94A90254
:100080000C94A9020C94A9020C94A9020C94A90244
:100090000C94A9020C94A9020C94A9020C94A90234
:1000A0000C94A9020C94A9020C94A90231352000E9
:1000B0003134200031332000313220003131200032
:1000C0003130200030392000303820003037200017
:1000D000303620003035200030342000303320000E
:1000E00030322000303120000000407E417E427ED0
:1000F000437E447E457E467E477E00000000487E6B
:10010000497E4A7E4B7E4C7E00004D7E00004E7E36
:1001100000000100010001000100010001000100D8
:1001200001000000000001000100010001000100C9
:1001300000000100000001000000010001000100BA
:1001400001000100010001000100000000000100A9
:100150000100010001000100000001000000010099
:100160000000010001000100010001000100010088
:100170000100000000000100010001000100010079
:10018000000001000000010000000100010001006A
:100190000100010001000100010000000000010059
:1001A0000100010001000100000001000000010049
:1001B0000000010001000100010001000100010038
:1001C0000100000000000100010001000100010029
:1001D0000000010000000100050004000700060007
:1001E00009000800010001000100010001000100F8
:1001F00001000100010001000100010001000100F7
:1002000001000100010001000100010001000100E6
:1002100001000100010001000100010001000100D6
:1002200000010101010101010101020202020202B9
:10023000020202030303030303030304040404048C
:100240000404050505050506060606060707070753
:100250000708080808090909090A0A0A0B0B0B0C08
:100260000C0C0D0D0D0E0E0E0F0F0F1010111111A5
:100270001212131314141515161617171818191926
:100280001A1A1B1B1C1D1D1E1E1F2020212222238B
:100290002424252626272829292A2B2C2D2D2E2FCC
:1002A00030313232333435363738393A3B3C3D3EE3
:1002B0003F404142434445464748494A4C4D4E4FD2
:1002C00050515354555658595A5B5D5E5F61626494
:1002D000656668696B6C6D6F7072737577787A7B21
:1002E0007D7E8082838587888A8C8E8F9193959678
:1002F000989A9C9EA0A2A3A5A7A9ABADAFB1B3B598
:10030000B7BABCBEC0C2C4C6C9CBCDCFD1D4D6D873
:10031000DBDDDFE2E4E7E9EBEEF0F3F5F8FAFDFF11
:1003200005010902A10185020901A10005091901C0
:10033000290815002501950875018102050109307C
:1003400009311581257F95027508810609381581C7
:10035000257F950175088106050C0A38021581254F
:100360007F950175088106C0C005010980A101853E
:100370000319012AB700150126B7009501751081F0
:1003800000C0050C0901A101850419012AA002156C
:100390000126A002950175108100C005010906A182
:1003A00001050719E029E715002501950875018168
:1003B000029501750881010507190029FF1500261E
:1003C000FF009506750881000508190129059505A6
:1003D00075019102950175039101C009023B00026C
:1003E0000100A0FA09040000010301010009211124
:1003F00001000122400007058103080001090401F2
:10040000000103000000092111010001227B000707
:100410000582032000011201000200000008840888
:1004200087080001010200012803430061006E00FB
:100430006E006F006E00620061006C006C00430093
:100440005500520053004F0052005000410044003C
:10045000000010036800610079006100730068000B
:10046000690000000403090400000000000000000F
:10047000000000000000000000000000000000007C
:100480000000000000000000000000007E0F00D40B
:10049000FFFFFFC700000078000000000000000020
:1004A0002A2B2800000000000000000000000000CF
:1004B00000000029000000002C1E342021222434DA
:1004C0002627252E362D3738271E1F2021222324AC
:1004D00025263333362E37381F0405060708090A48
:1004E0000B0C0D0E0F101112131415161718191AE4
:1004F0001B1C1D2F3130232D350405060708090A62
:100500000B0C0D0E0F101112131415161718191AC3
:100510001B1C1D2F3130354C11241FBECFEFDAE0EC
:10052000DEBFCDBF23E0A0EBB1E001C01D92A2323F
:10053000B207E1F711E0A0E0B1E0E0E9F4E602C0C3
:1005400005900D92A03BB107D9F70E942A2B0C947D
:10055000B3310C94000090911A03937061F08111F3
:100560000BC0946090931A031092140180911903A8
:100570008160809319030895803310F09C6BF2CF53
:10058000880F880F982BEECF482F2091E80290918A
:10059000AF0257E0291302C080E0089530E0529F77
:1005A000F001539FF00D1124E055FD4F8181681338
:1005B00006C08081481303C085818111EECF2F5F73
:1005C0003F4F2770E7CF90911A03937071F080939B
:1005D0001B0360931C03493C08F048EC40931D0347
:1005E000809119038160809319030895E8EDF0E08C
:1005F00080818E7F80831092E2001092DA00109248
:10060000E100A0EEB0E08C9181608C9380818F77C7
:10061000808319BCA7EDB0E08C918E7F8C93808194
:100620008F7E80831092980208952091E40030918B
:10063000E50095E6A9012091EC00822F817020FF52
:1006400006C08091E80080FF06C080E008952091F8
:10065000E80022FD1AC08091A502882389F0853028
:1006600089F08091EB0085FD0FC02091E40030916E
:10067000E50042175307F9F29150E1F684E008953E
:1006800082E0089583E0089581E008958091A702B3
:1006900087FF13C08091E80082FF06C08091E800C8
:1006A0008B778093E80004C08091A5028111F2CF7E
:1006B00008958091A5028823D9F38091E80080FFF6
:1006C000F8CF8091E8008E77ECCF982F9093E900D7
:1006D000242F762F50E0891731F07091EC00209193
:1006E000ED005091F00021FD07C09F5F973071F73A
:1006F0008093E90081E008953091EB003E7F3093D4
:10070000EB003091ED003D7F3093ED003091EB0038
:1007100031603093EB007093EC002093ED00509328
:10072000F0002091EE0027FDE0CF80E00895B0E0DA
:10073000A0E0EDE9F3E00C945F30C8EDD0E08881F3
:100740008F7E8883E7EDF0E080818160808384E0A4
:1007500082BF81E08093980288818E7F888302EE39
:1007600010E0F80110821092DA0081EEC82ED12C30
:10077000F601108288818F778883888180688883DA
:1007800088818F7D888319BC1092A5021092A602E1
:100790001092A4021092A30290EEE92EF12CF70120
:1007A00080818B7F808388818160888342E060E0E4
:1007B00080E00E946503F60180818E7F8083F801CE
:1007C000808181608083808188608083F70180815F
:1007D0008E7F8083888180618883CDB7DEB7E8E033
:1007E0000C947B30FC018091AD029091AE02861793
:1007F0009707A0F06115710529F49091E8009E77A4
:100800009093E80090E06115710551F4911108C0D2
:100810008091E80082FF34C080E00895BC01F2CFEF
:100820008091A5028823C1F18530C1F18091E80053
:1008300083FD30C08091E80082FDEACF8091E8001E
:1008400080FFE1CF8091F3002091F200382F6115F5
:10085000710519F02830310558F091E02830310544
:1008600009F090E02091E8002E772093E800CBCFAC
:1008700081918093F100615071092F5F3F4FE7CF65
:100880008091A502882341F0853041F08091E800F5
:1008900083FFBECF81E0089582E0089583E008954C
:1008A00080919A02089587E797E7909301088093D3
:1008B000000888E19AE00FB6F894A895809360004C
:1008C0000FBE90936000FFCF9C014FB7F8948091CA
:1008D000940290919502A0919602B09197024FBF19
:1008E000821B930B08952FB7F89460919402709136
:1008F000950280919602909197022FBF08952FB78D
:10090000F8948091940290919502A0919602B091F2
:1009100097022FBF08959C01FC0132969FEF80E063
:100920004191461751F09F3F19F4411101C0982F92
:100930008F5F8630A9F79F3F09F40895290F311D75
:1009400097FD3A95F90162830895A3E0B0E0EBEAE0
:10095000F4E00C94653020919102309192022817B6
:100960003907A1F09093920280939102E0918F0257
:10097000F0919002309751F024E029839B838A8381
:100980000680F781E02DCE01019609952396E2E0DD
:100990000C948130A3E0B0E0E0EDF4E00C9465301D
:1009A00020918D0230918E0228173907A1F0909383
:1009B0008E0280938D02E0918F02F0919002309729
:1009C00051F023E029839B838A830680F781E02D01
:1009D000CE01019609952396E2E00C948130E091D6
:1009E0008F02F0919002309729F00190F081E02D74
:1009F0000995089580E00895FA01811101C0FB0175
:100A000009950895E9E6F2E0818360834283339695
:100A100092E0ED38F907C1F70895FC01EE0FFF1FD2
:100A2000E80FF91FE759FD4F618340832283089542
:100A3000EAE1F3E0248132E0231B08F420E0248380
:100A4000809119038160809319030895EAE1F3E02E
:100A5000248132E0230F08F42FEF248380911903BF
:100A60008160809319030895EAE1F3E0438122E075
:100A7000421B08F440E08181628190E00E94E30221
:100A80000895EAE1F3E0438122E0420F08F44FEFDA
:100A90008181628190E00E94E3020895EAE1F3E03F
:100AA000628122E0621B08F460E08181438190E072
:100AB0000E94E3020895EAE1F3E0628122E0620F1E
:100AC00008F46FEF8181438190E00E94E302089572
:100AD000EAE1F3E08181438162818250990B0E94B7
:100AE000E3020895EAE1F3E0818190E043816281CD
:100AF00002960E94E302089580911A0386958695D6
:100B0000815009F48FE20E94AB02089580911A038C
:100B1000869586958F5F803308F081E00E94AB0256
:100B20000895EF92FF920F939701201B31092F3FF9
:100B3000310519F010F02FEF30E02095382F320FEB
:100B400008F43FEF832F0F91FF90EF900895EF92FD
:100B5000FF920F939701201B31092F3F310519F0A8
:100B600010F02FEF30E0322F3095482F430F08F46C
:100B70004FEF842F620F0F91FF90EF900895EF9247
:100B8000FF920F93972F093438F4B701601B710956
:100B90006F3F710519F010F06FEF70E0485F5F4F25
:100BA0004131510540F0A901485F5F4F4131510586
:100BB00010F06FEF70E06095482F460F08F44FEF8C
:100BC000842F37FF02C02D5F3F4F35952795359510
:100BD000279560911B03620F792F0F91FF90EF9083
:100BE0000895EF92FF920F931F930E0D1F2D111D6D
:100BF000F90137FF03C0F195E195F10924E0EE0F0B
:100C0000FF1F2A95E1F7EF3FF10519F014F0EFEF20
:100C1000F0E09A0157FF03C031952195310994E026
:100C2000220F331F9A95E1F72E173F070CF4F901B5
:100C3000E00FF11FEF3FF10519F010F0EFEFF0E0DA
:100C4000E095282F3E2F230F08F42FEF822F1F91BE
:100C50000F91FF90EF900895EF92FF920F939701FD
:100C600095E0099F200D311D11242F3F310519F00A
:100C700010F02FEF30E02095382F320F08F43FEFBF
:100C8000832F0F91FF90EF90089522E8241B08F422
:100C900020E0620F08954095282F429F412D112496
:100CA000842F0895E42FF0E0EE0FFF1FE457FE4F6E
:100CB0009081921B97FD9195292F38E1239F212D3B
:100CC0001124620F08950F931F9310E0F801EE0FA7
:100CD000FF1FE457FE4F9081905797FD9195000FAD
:100CE000111FF801E858FE4F05890052110B20032F
:100CF000F001219FF00D112408E310E0091B1109F8
:100D000097FD139540039001419F300D1124E20F90
:100D1000F31F9F01220F331F2E0F3F1F37FF02C00B
:100D200021583F4F220F232F221F330B620F1F9199
:100D30000F9108950F931F93522F10E0F801EE0FBB
:100D4000FF1FE858FE4FA589A052BB0B9D0152031F
:100D5000F001539FF00D1124000F111FD801A4576B
:100D6000BE4F0C910057110B40039001419F300D75
:100D700011242E0F3F1F37FF02C021583F4F220F73
:100D8000232F221F330B620F1F910F910895EF92B3
:100D90000F93972F23E0029FB0011124759567955B
:100DA0006E0D792F0F91EF900895322F50E0FA01D8
:100DB000EE0FFF1FE858FE4F9589905297FD9195D1
:100DC000440F551FFA01E457FE4F2081231B330BBC
:100DD000290F311D97FD3A95620F0895E42FF0E039
:100DE000EE0FFF1FE858FE4F6589621B0895E42F40
:100DF000F0E0EE0FFF1FE457FE4F6081621B089585
:100E0000622F0895E42FF0E0EE0FFF1FE457FE4F2E
:100E1000408134EE439F412D1124E82FF0E050E053
:100E2000445E5F4FDA01A21BB1099D01B7FF03C009
:100E300031952195310993E0220F331F9A95E1F7FF
:100E4000AF01421B530B9A0157FD20E0582F259FFD
:100E5000212D1124822F0895E42FF0E0EE0FFF1FC3
:100E6000E457FE4F408134EE439F412D1124E72F7C
:100E7000F0E050E0445E5F4FDA01A21BB1099D0132
:100E8000B7FF03C031952195310993E0220F331F3D
:100E90009A95E1F7AF01421B530B9A0157FD20E0F1
:100EA000279F212D1124722F08950E940205089575
:100EB0000E940D050895FC019B01009729F480E034
:100EC00077FF2BC080E80895AC0197FF04C044274A
:100ED0005527481B590BB901640F751F37FD10C00A
:100EE000241B350BC901A5E0880F991FAA95E1F7CE
:100EF0000E943B3080E2861BF7FF0FC0819508956A
:100F0000CB0165E0880F991F6A95E1F7BA01621B72
:100F1000730B0E943B3080E6EECF0895EF920F9363
:100F2000CF93DF93D72FC82FC9010E19BA010E94A2
:100F30005B07602F681B7D2F8C2FDF91CF910F9166
:100F4000EF9008950F93CF93DF93D72FC82FC90148
:100F5000BA010E945B07682F600F7D2F8C2FDF91F5
:100F6000CF910F910895EF920F931F93CF93DF933B
:100F7000D62FC72F182FC9010E19010FBA010E94D1
:100F80005B07081B202F219F212D1124822F6D2FFD
:100F90007C2FDF91CF911F910F91EF900895EF92E9
:100FA0000F931F93CF93DF93D62F172FC82FC9010D
:100FB0000E19070FBA010E945B07702F781B719FF3
:100FC000712D11246D2F8C2FDF91CF911F910F91D7
:100FD000EF9008950F931F93CF93DF93D62FC72FD2
:100FE000182FC901212F201B022FBA010E945B0775
:100FF000982F990F990F891B800F282F219F212D42
:101000001124822F6D2F7C2FDF91CF911F910F9193
:1010100008950F931F93CF93DF93D62F172FC82FC9
:10102000C901272F201B022FBA010E945B07982FAE
:10103000990F990F782F791B700F719F712D1124C3
:101040006D2F8C2FDF91CF911F910F910895E82F75
:1010500086FDE0952E2F2F7086FD2F5FE695E69595
:10106000E695E670F0E0E059FE4F9181929F902D59
:10107000212D112492959F702295207F922B208103
:10108000920F87FD919580E8890F08950F931F9324
:10109000CF93DF938B01D82FC42F822F0E94270874
:1010A000EC2FF0E0EE0FFF1FE457FE4F90819058B9
:1010B000890F87FD8195880F682F2CE0629F612D35
:1010C0001124600F712F8D2FDF91CF911F910F9100
:1010D000089540910C0150910D0125E038E0429FA8
:1010E000C001439F900D529F900D1124875E994C33
:1010F00090930D0180930C01890F0895AC0182300B
:10110000910508F408959FEF413E8EE1580740F4A1
:101110009A0195E0369527959A95E1F798E0920F18
:1011200061E0E62FE90FFF27FF1F9F013595279507
:10113000822F229FF001239FF00DF00D11244E17F6
:101140005F0738F49FEF920F961758F78FEF860FCF
:1011500008952F3FE9F361E0620FF6CF0F93CF932D
:10116000DF93D72FC82F47FD419588E390E0841B7C
:10117000910947FD9395889FB001899F700D700D6F
:101180001124229FC001239F900D900D1124860FE2
:10119000971F0E947E08982F990F890F682F600F64
:1011A0007D2F8C2FDF91CF910F91089530E020E0BB
:1011B000869F212D969F200D311D1124C901089570
:1011C000AF92BF92CF92DF92FF920F931F93CF9374
:1011D000DF93362F472FE82FF0E0E05EFD4F7111CF
:1011E0000FC0E4918E2F2E2F6E2F722FDF91CF9193
:1011F0001F910F91FF90DF90CF90BF90AF90089517
:10120000C72FD0E02491F22E022F10E056E0659F08
:10121000C0011124EFEFF0E0BF010E942730832FBF
:1012200090E0880F991F35E5369FD001379FB00DAC
:1012300011248A1B9B0B982F990F980F6F01CC1AC2
:10124000DD0AC09ED001C19EB00DD09EB00D11240C
:101250008B2F499FA0011124452F55276F01C41AD8
:10126000D50AC09EA001C19E500DD09E500D1124E4
:101270005F01A91AB108AC9E6001AD9ED00CBC9E66
:10128000D00C1124CD2CDD24EC19FD09E09FE001E8
:10129000E19FD00DF09FD00D1124ED2F623071052C
:1012A000A1F050F46115710509F49ECF613071050C
:1012B00081F0EB2F852F98CF6430710569F080F0B5
:1012C0006630710509F490CFF4CFE22F2B2F8D2FCC
:1012D0008BCFE22F252F88CFEB2F822F2D2F84CF7E
:1012E0002B2F8F2DE52F80CFB0E0A0E0EAE7F9E0CB
:1012F0000C9460308C01FC01E858FE4F84A56823F3
:1013000049F1D0901C03D0911D03C0911B03EC2E1A
:10131000F12C0E946908282FC7018C549F4F68E662
:1013200071E00E943B308E199F0997FD03969595B9
:1013300087959595879523706C2F289F600D1124B4
:101340007D2D8D2F0E94E008462F282F672FC80182
:101350000E945807CDB7DEB7E7E00C947C302F929F
:101360003F925F926F927F928F929F92AF92BF92C5
:10137000CF92DF92EF92FF920F931F93CF93DF9361
:10138000CDB7DEB72A970FB6F894DEBF0FBECDBF3C
:101390008B837E836D8380911101282F220F280F6C
:1013A0002F832D5F29832A832D3010F03CE03A8370
:1013B0008091ED028C83FF81EF2FF0E0FA87E987BF
:1013C000CF01880F991F9C0128583E4F69013B812E
:1013D000832F90E0FC013196F887EF838A8199850D
:1013E0009817E8F081E0E981EC3008F080E02A9677
:1013F0000FB6F894DEBF0FBECDBFDF91CF911F9126
:101400000F91FF90EF90DF90CF90BF90AF909F90A3
:101410008F907F906F905F903F902F900895E98517
:10142000FA85E858FE4F84A5909112018923F1F0C6
:1014300020901B0330901C032F81388523513D4F92
:1014400039015B8010E0FC815F16D0F020911D0314
:10145000129F112D1124B101812F0E94E008462F07
:10146000282F672F89859A850E94580729853A85F4
:101470002F5F3F4F3A87298732E0C30ED11CAECF92
:10148000F30181913F01F601A488A81ABB08858861
:10149000F3018781881A9908AA9C9001AB9C300DB2
:1014A000300D1124889CC001899C900D900D112451
:1014B000820F931F0E947E08082F60911E0321E077
:1014C000620F08F46FEFF301EE0FFF1FED5EF240C5
:1014D000858996890E94D6087C019401A501B101F5
:1014E000812FED81FE8109951B015394182FABCFFD
:1014F000B0E0A0E0EEE7FAE00C945F308C01809160
:101500001101C82FCC0FC80F23E0D22EDC0ECD2C3A
:101510002CE02D1510F49CE0C92E20911E0331E023
:10152000230F08F42FEF30E050E040E06FEF7FEF43
:1015300080E090E00E9450317901D0E02C2FCC1552
:1015400050F081E0FBE0FD1508F480E0CDB7DEB798
:10155000E8E00C947B30FE01E858FE4F84A59091A2
:101560001201892311F14091ED024150042E000C2B
:10157000550B47FF1CC0C70160911E0321E0620F9D
:1015800008F46FEF0E94D608AC0160911B037091C4
:101590001C0380911D03F80109950E94E008462F65
:1015A000282F672FCE010E9458072196C7CFFA0136
:1015B000E351FD4F818982130AC0FA01EE0FFF1F2C
:1015C000E351FD4F818D928D8E159F05A8F24150FC
:1015D0005109CFCFB0E0A0E0E0EFFAE00C9460302A
:1015E0007C0180911101C82FCC0FC80F13E01C0F94
:1015F000012F1D3008F00CE060911E036695669582
:1016000021E0620F08F46FEF8091E9029091EA0205
:101610000E94D608D82ED0E0C01748F081E01C30D8
:1016200008F080E0CDB7DEB7E7E00C947C30FE0137
:10163000E858FE4F84A590911201892391F06091A2
:101640001B0370911C0380911D032D2D4C2FF7015E
:1016500009950E94E008462F282F672FCE010E948F
:1016600058072196D9CFB0E0A0E0E9E3FBE00C9465
:101670005C306C0180911101C82FCC0FC80F13E0B2
:101680001C0FB12E1D3010F03CE0B32E60911E03F4
:10169000669566958091E9029091EA020E94D608CB
:1016A000F82E80E48F0D0E94270890E8A92EA80E3E
:1016B0008F2D0E94270820E8922E980ED0E0CB159F
:1016C00048F081E01C3008F080E0CDB7DEB7EBE0F9
:1016D0000C947830FE01E858FE4F84A590911201D9
:1016E0008923A1F060911B0370911C0380911D035D
:1016F000EF2C0C2F292D4A2DF60109950E94E008A8
:10170000462F282F672FCE010E9458072196D7CF4A
:10171000B0E0A0E0EEE8FBE00C9458303C01809192
:101720001101C82FCC0FC80F13E01C0FF12E1D3074
:1017300010F03CE0F32E60911E0366958091E90263
:101740009091EA020E94D608582ED0E0CE01880F70
:10175000991F9C0128583E4F6901CF1548F081E040
:101760001C3008F080E0CDB7DEB7EFE00C947430A9
:10177000FE01E858FE4F84A590911201892379F16A
:10178000F6018489282F2057330B59018589E82FCA
:10179000E052FF0B4F01AA9C9001AB9C300D300D25
:1017A0001124EE9FC001EF9F900D900D1124820F28
:1017B000931F0E947E08082F60911B0370911C03E9
:1017C00080911D03E52C9401A501F30109950E9468
:1017D000E008462F282F672FCE010E945807F2E01D
:1017E000CF0ED11C2196B9CFB0E0A0E0EAEFFBE02C
:1017F0000C945D306C0180911101C82FCC0FC80F83
:1018000013E01C0FB12E1D3010F03CE0B32E6091A0
:101810001E0366958091E9029091EA020E94D60823
:10182000A82ED0E0CE01880F991F9C0128583E4F6A
:101830007901CB1548F081E01C3008F080E0CDB78D
:10184000DEB7EAE00C947930FE01E858FE4F84A53B
:10185000909112018923C1F0F70125892052330BA1
:1018600044894057550B60911B0370911C03809174
:101870001D030A2DF60109950E94E008462F282F26
:10188000672FCE010E945807F2E0EF0EF11C21965F
:10189000D0CF1F93CF93DF93EC01FC01E858FE4FAC
:1018A00084A56823B1F00E946908182F0E94690876
:1018B00020E8829FC00111247FE7790F612F80917A
:1018C0001D030E94E008462F282F672FCE010E949B
:1018D0005807DF91CF911F9108950E947F049C01CA
:1018E0009091090280910A02982B21F03093060210
:1018F0002093050290910B0280910C02982B21F00D
:101900003093040220930302E0918F02F091900241
:10191000309749F082E0809307020480F581E02D42
:1019200087E092E0099508958091020280FD16C03B
:1019300081FD16C082FD16C0809101028823A1F0AE
:10194000883280F428E0829FC001112468E270E0B0
:101950000E943B30862F672B39F0089582E008956E
:1019600084E0089588E0089581E00895809102025E
:1019700080FD14C081FD14C082FD16C0809100025C
:10198000882381F08E3180F420E5829FC0011124EC
:101990006EE170E00E943B30862F089584E1089547
:1019A00088E2089588E0089580E5089580E008952C
:1019B000F894E82FE295EF70F0E031A1282F2F7016
:1019C00081E090E001C0880F2A95EAF7982F909562
:1019D000932391A392A1892B82A378940895909147
:1019E000EA0192FF06C0282F28712830F9F4877F7A
:1019F000846093FF06C0282F28712831F1F4877E78
:101A000084612091EB0120FF06C0382F38713830F7
:101A1000D9F4877F816021FF06C0282F28712831E3
:101A2000D1F4877E816194FD877E0895282F2471EB
:101A30002430F9F68B7F8860DCCF282F2471243185
:101A400001F78B7E8861DDCF382F3171313019F786
:101A50008E7F8860E0CF282F2171213121F78E7E83
:101A60008861E1CF82389105B9F1B0F481339105F5
:101A700009F47DC048F48932910509F46DC08A32B9
:101A8000910509F47BC008958533910509F45FC081
:101A90008933910509F10895833E9105D9F138F410
:101AA000803E910529F1823E910579F10895863EA7
:101AB0009105D9F1873E910509F43EC0843E910518
:101AC00041F52091EB0121FF24C08091EA0184FDC2
:101AD00019C087EE90E008952091EA01237009F083
:101AE0005AC02091EB0123FF14C089E290E00895D1
:101AF0002091EA0120FD38C03091EB0130FF09C090
:101B000024FF43C090E080E008952091EA0122FD87
:101B1000F7CF08952091EA0122FD3AC03091EB0100
:101B200030FD39C024FFF5CFEDCF2091EA0123FF2E
:101B3000F0CF24FDE7CFCDCF2091EA0123FD2EC0C9
:101B40003091EB0131FFEECF84EE90E008952091CB
:101B5000EA0125FFDECFC9CF2091EA0125FD21C092
:101B60002091EB0123FFD5CF89E390E0D2CF2091E4
:101B7000EA0126FFCECF8AE290E008952091EA01A3
:101B800026FFC7CF81E390E0089583EE90E00895AB
:101B900082EE90E0089580EE90E0089586EE90E069
:101BA000089585E390E00895972F7430C8F4653068
:101BB00008F03EC0863008F03EC070E025E0929FFD
:101BC000600D711D1124FB0194E1899FE00DF11D51
:101BD0001124EE0FFF1FE851FF4F85919491089556
:101BE0007D3F91F4633020F5863028F5E62FF0E054
:101BF00023E0829FE00DF11D1124EE0FFF1FEE0F79
:101C0000FF1FE852FE4FE9CF7C3F91F4633080F430
:101C1000863088F4E62FF0E093E0899FE00DF11D17
:101C20001124EE0FFF1FEE0FFF1FE652FE4FD5CF20
:101C300080E090E0089581E0FCCF1F93CF93DF9385
:101C40000E94320DEC01C11580E5D807F0F5C115F1
:101C500080E4D80708F09CC0C03ED10520F5CD3CFB
:101C6000D10508F082C0C83AD10578F4C53AD1054B
:101C700008F073C0C130D10519F1209709F1C430C3
:101C8000D105F0F4D0E0C0E01BC0C33CD105D0F7D3
:101C9000C85AD0E0CC0FDD1FC55EDE4F0990D88159
:101CA000C02DD4640DC0C11580E2D80708F0D1C0A2
:101CB000C11581E0D80708F05AC0C83ED10510F719
:101CC000CE01DF91CF911F910895C03682E5D807EC
:101CD00018F5C03482E5D80708F06BC0C03282E541
:101CE000D80708F05FC0C11582E5D80708F497C08F
:101CF0002C2F2695269580E2289F900111248C2F69
:101D00008370C1E0D0E002C0CC0FDD1F8A95E2F7FE
:101D1000C22BD32BDD68D4CFC03A82E5D80760F45C
:101D2000C03882E5D80708F459C0CF71D0E0DC2F65
:101D3000CC27C46FD06AC4CFC03C82E5D80708F472
:101D400062C0C03E82E5D80708F09CCFDC2FCC27CC
:101D5000CC27DF71C06FD06AB3CFC55AD0E0C85E60
:101D6000DE4FC881D0E0D064ABCFD065A9CF8D2F36
:101D70000E94EF0C182FCE0199270E94320DC12F1F
:101D8000D0E0DC2FCC27CC27DF71C82BD92B98CF04
:101D9000CE0199270E94320DCC27DF70C82BD92B9A
:101DA000D06A8ECFCF71D0E0DC2FCC27C16FD06A44
:101DB00087CF2C2F26952695277080E2289F9001AB
:101DC00011248C2F8370C1E0D0E002C0CC0FDD1F46
:101DD0008A95E2F7C22BD32BDC6872CF2C2F269585
:101DE0002695277080E2289F900111248C2F837004
:101DF000C1E0D0E002C0CC0FDD1F8A95E2F7C22B14
:101E0000D32BDA685DCF8C2F8F710E94EF0CC82F17
:101E1000D0E0DC2FCC27CC27DF71D06251CF8C2FC4
:101E20008F710E94EF0C55E0D695C7955A95E1F752
:101E3000CF70D0E0DC2FCC27282F30E084FF05C006
:101E400044E0220F331F4A95E1F7C22BD32BD06910
:101E500037CF8D2F8F710E94EF0C182FCE0199274D
:101E60000E94320DC12FD0E0DC2FCC27CC27DF71B0
:101E7000C82BD92BD2CF80959091DE0198239093D7
:101E8000DE0108958091E8029091AF02981301C09D
:101E900008958F5F8770FACFB0E0A0E0E2E5FFE041
:101EA0000C945E307C010091630210916402809179
:101EB000DF019091E001082B192BCFE0D0E0CC247A
:101EC000C394D12CBC2EC6010C2E02C0880F991FC2
:101ED0000A94E2F780239123892B49F4219790F704
:101EE000B12C8B2DCDB7DEB7E9E00C947A30B70179
:101EF0008C2F0E94D40D0E941D0E019779F3F1CF13
:101F0000CF93DF93EC010E944C0FBE010E94D40DD1
:101F10000E941D0EDF91CF910895A82FA77023E096
:101F2000969587952A95E1F7880F991F880F991F35
:101F3000FB01E80FF91F50E040E080E0219130E024
:101F40000A2E02C0369527950A94E2F721703327AE
:101F5000042E01C0220F0A94EAF7822B4F5F5F4FD5
:101F60004430510559F70895292F943068F485308D
:101F700090F490E060EC71E035E0239F800D911DBE
:101F800011240E948D0F08952C5F223020F46CEBF9
:101F900071E090E0F6CF80E00895262F277091E061
:101FA00001C0990F2A95EAF723E0769567952A955F
:101FB000E1F7660F771F660F771FFA01E60FF71F2D
:101FC00050E040E0682F70E08191DF0111979B01A4
:101FD000042E02C0369527950A94E2F721702195C8
:101FE0002827292328272C934F5F5F4F4430510522
:101FF00059F70895282F862F943070F4253058F41F
:10200000622F70E025E0929F600D711D112440EC5D
:1020100051E00E94CD0F08959C5F9230E0F7622F4F
:1020200070E04CEB51E0F5CF909364028093630233
:10203000089521E030E002C0220F331F8A95E2F7B5
:1020400020953095809163029091640282239323BE
:102050000E94141008959091D30180958923809354
:10206000D301282F277069F4891759F09091EB015B
:1020700092FF07C08695869586950E94191010924A
:10208000D301089521E030E002C0220F331F8A956A
:10209000E2F78091630290916402822B932B0E945D
:1020A000141008959093E0018093DF010895FC01DE
:1020B00024812223C1F0808191810E94800F92951A
:1020C0009F70963091F058F4925F9F70923058F460
:1020D000803F19F030F4883E30F481E008959A5F33
:1020E000F4CF843FD1F380E00895883EB0F3813F80
:1020F000D1F7F3CF662309F45DC08D3C41F40E9413
:10210000B60C819580930A020E946D0C08958E3C56
:1021100019F40E94B60CF6CF8F3C31F40E94B60C35
:10212000819580930902F0CF803D19F40E94B60C8E
:10213000F8CF893D29F40E94940C80930B02E4CFE0
:102140008A3D21F40E94940C8195F7CF8B3D31F4A8
:102150000E94940C819580930C02D6CF8C3D19F48B
:102160000E94940CF8CF9FE2980F983070F4815D34
:10217000990B21E030E001C0220F8A95EAF78091A7
:102180000802822B80930802BFCF8D3D31F48091ED
:102190000202816080930202B7CF8E3D21F48091CC
:1021A00002028260F7CF8F3D09F0AECF809102022C
:1021B0008460F0CF409109028D3C59F480910A026D
:1021C00087FF0DC010920A0241110BC0109200024D
:1021D00008C08E3C81F480910A0218169CF34423B7
:1021E00081F080910B0290910C02892B09F08CCF29
:1021F0001092010289CF8F3C49F447FFF0CF109233
:10220000090280910A028111ECCFE0CF803D19F4E0
:102210001416ACF3E4CF90910B02893D29F4191602
:10222000F4F610920B02DBCF8A3D19F497FFD7CF5B
:10223000F8CF90910C028B3D29F497FFD0CF1092EC
:102240000C02CDCF8C3D19F41916CCF3C8CF9FE208
:10225000980F983090F4815D990B21E030E0B9013E
:1022600002C0660F771F8A95E2F7CB0180959091A7
:102270000802892380930802B2CF8D3D31F480910A
:1022800002028E7F80930202AACF8E3D21F48091BC
:1022900002028D7FF7CF8F3D09F0A1CF809102021E
:1022A0008B7FF0CF292F332740E02115310511F026
:1022B000C90148E09C0164E0369527956A95E1F7ED
:1022C0002115310511F04C5FC9019C013695279508
:1022D000369527952115310511F04E5FC901969568
:1022E0008795892B09F04F5F842F0895A6E0B0E011
:1022F000ECE7F1E10C94643049835A8349815A81B7
:102300009923A1F0222391F0CA010E944C0F182FAB
:10231000682F89819A810E94FA0F69817A81812FC1
:102320000E94D40D2696E3E00C948030CA010E94EE
:10233000B40F182FF2CF0F931F93CF93DF938B011E
:10234000EA019091A502943061F58093E9008FEF46
:102350009091E800815095FD06C095ED9A95F1F7B2
:1023600000008111F5CF8091E80085FF1AC00E941E
:102370001503811111C08091E80085FD06C0809190
:10238000E8008E778093E800F2CFF80181918F0109
:102390008093F100219779F78091E8008E77809300
:1023A000E800DF91CF911F910F91089543E050E035
:1023B000BC0182E00E949B11089546E050E0BC0100
:1023C00082E00E949B110895CF93DF93EC0148E0D7
:1023D00050E0BC0181E00E949B1188E0FE01ABE966
:1023E000B2E001900D928A95E1F7DF91CF910895C7
:1023F000539A3BB1377F2BB128604FB7F89489E6E9
:1024000092E0FC015191CF0168E02BB9000000C0BF
:1024100057FF3BB9550F000000C000C000C03BB9DA
:1024200000C06A9591F7F2E08D389F0751F74FBFD2
:102430008FE594E00197F1F700C000000895EAE10C
:10244000F3E085E380838091150190911601A091BE
:10245000170181839283A3838FE784838FEF858322
:1024600048E050E068E170E0CF010E941C3110921A
:1024700019030895A3E0B0E0E0E4F2E10C945530D4
:10248000C0903602D0903702E0903802F0903902C6
:102490008FB7F89440909402509095026090960205
:1024A000709097028FBF530142018C189D08AE08AF
:1024B000BF080E947304AB01BC01409336025093E5
:1024C00037026093380270933902809165029091CF
:1024D0006602A0916702B0916802880D991DAA1D3D
:1024E000BB1D8093650290936602A0936702B09330
:1024F000680210910D02EDE0F2E019831A822FEFCD
:10250000C20ED21EE11CF11CC418D508E608F7085B
:102510003A81131323C0E981E0930D0210E0813466
:102520009747AB41B10540F480911A03182F1370FF
:1025300019F0182F16951695809114018130E1F14C
:10254000882319F1823011F40C94F31B833011F4B9
:102550000C94FE1B2396E2E10C947130218D328D98
:102560002901712C612CC414D504E604F70440F44D
:102570003981315039832A812F5F2A833296C8CF1F
:10258000280D391D328F218FF6CF10921101409303
:10259000E9025093EA026093EB027093EC0289E245
:1025A000EDE0F2E0ADEEB2E001900D928A95E1F738
:1025B00081E080931401CECF80910F01181323C0C6
:1025C00090911A03937020910E0130E081E09217F0
:1025D000130609F480E081708093130180911F033A
:1025E00090911201981739F08093120140E060E059
:1025F00080E00E945507103360F4E12FF0E0EB54C7
:10260000FE4C0C944F3081E0E6CF80911301811194
:1026100002C01A822AC040E060E080E00E945507B4
:10262000F8CF80911101282F220F280F2983022F24
:102630000D5FF02E0D3010F06CE0F62E60911B0354
:1026400070911C0380911D030E94E008E62ED72E96
:10265000C82E5981452F50E05B834A839A819F158C
:10266000B8F0A1E0AA830C30A0F6809111018F5F31
:1026700080931101BA81B1116DCF82E08093140172
:1026800080911301811166CF111164CF83E091CF46
:10269000EA81FB81E858FE4F84A5909112018923BD
:1026A00039F02C2D4E2D6D2D8A819B810E9458076B
:1026B0008A819B8101969B838A83D0CF809111016F
:1026C000B82FBB0FB80FB9830B2F0D5FF02E0D3055
:1026D00010F05CE0F52ED0901C03E0901D03E0911B
:1026E0001B03EA836E2F7D2D8E2D0E94E008C62EDF
:1026F000B72EA82E60911E03FA816F0F7D2D8E2DAF
:102700000E94E008E62ED72E982E3981232F30E044
:102710003B832A835A815F1518F081E08A83A3CF17
:10272000EA81FB81E858FE4F94A58091120189232C
:1027300061F0292D4E2D6D2D90FD03C02A2D4C2DBD
:102740006B2D8A819B810E9458074A815B814F5F74
:102750005F4F5B834A83DECF80911101982F990FE1
:10276000980F9983092F0D5FE02E0D3010F04CE08B
:10277000E42ED0901C03C0901D0320911E0330E472
:10278000F32E3F2D329F312D1124F32E5981452FE9
:1027900050E05B834A839A819E1508F062CFEA81FC
:1027A000FB81E858FE4F84A5909112018923C9F05E
:1027B000EA81FB81EE0FFF1FE858FE4F8589829565
:1027C0008F7060911B038F9D600D11247D2D8C2DCA
:1027D0000E94E008462F282F672F8A819B810E9444
:1027E00058078A819B8101969B838A83D4CF8091ED
:1027F0001101B82FBB0FB80FB9830B2F0D5FE02E5F
:102800000D3010F09CE0E92ED0901C03C0901D0309
:1028100020911E0380E4F82E3F2D329F312D11248C
:10282000F32E5981452F50E05B834A839A819E1590
:1028300008F017CFEA81FB81E858FE4F84A59091FC
:1028400012018923E9F0EA81FB81EE0FFF1FE858AE
:10285000FE4F6489F69EB0011124B5E07595679529
:10286000BA95E1F780911B03680F7D2D8C2D0E9496
:10287000E008462F282F672F8A819B810E945807E6
:102880008A819B8101969B838A83D0CF809111019D
:10289000B82FBB0FB80FB9830B2F0D5FF02E0D3083
:1028A00010F0ECE0FE2EE0901B03E0911C03EA83A5
:1028B000D0901D0360911E03669566956695809184
:1028C000E9029091EA020E94D6080E9427088058E7
:1028D00087FD8195880F282F3D2D239F212D1124C1
:1028E000822F6E2D7A810E94E008E62ED72EC82E08
:1028F0005981452F50E05B834A839A819F1508F0E8
:10290000B0CEEA81FB81E858FE4F84A59091120178
:10291000892339F02C2D4E2D6D2D8A819B810E94AB
:1029200058078A819B8101969B838A83E6CF8CE23C
:1029300097E00E94EA0A8A8398CE82E097E0F9CF76
:1029400089E098E00E94F40BF6CF8AEE97E0FACF88
:102950008FEC97E00E94880BEECF83EB97E0FACFE5
:1029600080E097E0E6CF87EF96E0E3CF8EEE96E04B
:10297000E0CF85ED96E0DDCF87EC96E0EBCF8EEAF9
:1029800098E0E0CF82EA97E0DDCF8EE897E0E2CFF3
:102990008AE996E00E94330BCECF83E696E0FACF29
:1029A00080911101B82FBB0FB80FB9830B2F0D5FAA
:1029B00080911301811121C060911E0320E1620FFB
:1029C00008F46FEF8091E9029091EA020E94D60824
:1029D0006AE070E00E942730892B61F40E94690848
:1029E000ECE08E9FC001112460911201892F90E0CC
:1029F0000E94740991E09A8336CE802F0D3008F042
:102A00008CE03981232F30E03B832A83E82EF12CA0
:102A10008A819B818E159F056CF7609112018A81D6
:102A20009B810E9474094A815B814F5F5F4F5B838A
:102A30004A83EECFA0911301AA83A11120C0609117
:102A40001E0320E1620F08F46FEF8091E90290917C
:102A5000EA020E94D60865E070E00E942730892BC8
:102A600009F0D7CD0E946908BCE08B9FC0011124FA
:102A700060911201892F90E00E94490CF6CD80915F
:102A80001101E82FEE0FE80FE9830E2F0D5F802F65
:102A90000D3008F08CE03981232F30E03B832A830E
:102AA000E82EF12C8A819B818E159F050CF0A2CF18
:102AB000609112018A819B810E94490C4A815B814D
:102AC0004F5F5F4F5B834A83EDCF80911101A82F49
:102AD000AA0FA80FA9830A2F0D5FF02E0D3010F05A
:102AE0007CE0F72ED0901C03E0901D03B0911B03F7
:102AF000BA8360911E036695669566958091E9029A
:102B00009091EA020E94D6080E942708805887FD0B
:102B10008195880F682F2CE0629F612D1124EA8136
:102B20006E0F7D2D8E2D0E94E008E62ED72EC82E2A
:102B30003981232F30E03B832A835A815F1508F0C7
:102B4000ECCDEA81FB81E858FE4F84A590911201FB
:102B5000892339F02C2D4E2D6D2D8A819B810E9469
:102B600058074A815B814F5F5F4F5B834A83E5CFA4
:102B700086E498E0DECE82E596E0DBCE809111011E
:102B80008F5F082F000F080F4091E9025091EA0271
:102B90006091EB027091EC0280913A0290913B02BD
:102BA000A0913C02B0913D0284179507A607B70794
:102BB00008F055C00E946908ECE08E9FD0011124F6
:102BC0002B2F33273B832A83F901E858FE4F84A536
:102BD00090911201892309F442C00E94690820E003
:102BE00040E060E081FD13C00E946908F82E0E9459
:102BF000690830E8839FC00111247FE7790F6F2DAA
:102C000080911D030E94E008462F282F672F8A819C
:102C10009B810E94580720911E0330E1230F08F486
:102C20002FEF60E1822F90E00E94D608BC0184EF74
:102C300091E00E9427308091E9029091EA02A091F0
:102C4000EB02B091EC02860F971FA11DB11D80937E
:102C50003A0290933B02A0933C02B0933D0241E0C4
:102C60004A8301CD80911301882329F040E060E080
:102C700080E00E945507809111018F5FB82EBB0C38
:102C8000B80E4091E9025091EA026091EB02709116
:102C9000EC028091460290914702A0914802B091C7
:102CA000490284179507A607B70708F099C06091F5
:102CB0001B0370911C0380911D030E94E008062FE6
:102CC000A72E982E4EE3E42E42E0F42E88E791E002
:102CD0009B838A835CE8C52E51E0D52EAA81BB81F7
:102CE0008C9190E0F701208121110CC020E040E0A0
:102CF00060E00E945807EA81FB81848120E040E087
:102D000060E00CC0292D402F6A2D0E945807AA812F
:102D1000BB8114968C91292D402F6A2D90E00E9442
:102D20005807D70111962C9111972C93EA81FB81BA
:102D3000818190E021110CC020E040E060E00E9421
:102D40005807EA81FB81838120E040E060E00CC00D
:102D5000292D402F6A2D0E945807AA81BB81139606
:102D60008C91292D402F6A2D90E00E9458070E94D7
:102D70006908837091E009F090E0D70111969C9367
:102D8000B2E0EB0EF11CEA81FB813596FB83EA830E
:102D9000CE16DF0609F0A2CF20911E0330E1230FEB
:102DA00008F42FEF60E1822F90E00E94D608BC016A
:102DB00088EB9BE00E9427308091E9029091EA0223
:102DC000A091EB02B091EC02860F971FA11DB11DDF
:102DD0008093460290934702A0934802B093490221
:102DE000F1E0FA832BE02B1508F03FCC12CC809158
:102DF0001101C82ECC0CC80E33E0A32EAC0C8A2CCB
:102E00003CE03A1510F42CE0822E809113018823C7
:102E100061F040E060E080E00E945507EFE4F2E0FE
:102E200084E1DF011D928A95E9F7809111018111FA
:102E300015C080914B0290914C020E94640421E0E5
:102E40008931910508F420E020934A02499730F037
:102E50000E947F0490934C0280934B02B12C912CE2
:102E6000D12CB5E06B2E85E5582E9AEA792E4424B4
:102E7000439405C0F2E0F91508F45BC0D12C2D2D68
:102E800030E06B9CF0011124FB83EA83E858FE4F8D
:102E9000E20FF31FE080EC1408F443C0E81408F0DC
:102EA00040C09394F12CF701E858FE4F84A590910F
:102EB0001201892309F435C04A815B81415B5D4F72
:102EC000420F531F5B834A83DA010C91302F252D6B
:102ED000321B08F430E070911C03272D200F08F4FA
:102EE0002FEF40911D03822F880F820F8E5F582F86
:102EF000549F512D1124852F672D631B0E94E008DC
:102F0000462F282F672FC7010E94580780914A0239
:102F1000882339F0242D021B08F400E0AA81BB812C
:102F20000C93D394B5E0DB12AACFB394E4E0BE12C5
:102F3000A1CF21E02A833BE03A1508F096CB69CB7C
:102F400000911D0383E0089FA00111245695479529
:102F5000569547955B834A835A80A02EB12C8FEFFC
:102F600090E0B5010E943B30762E809113018823BA
:102F700071F040E060E080E00E945507EFE4F2E08D
:102F800084E1DF011D928A95E9F710924E0280914B
:102F90004D028F5F80934D02F12CE12CEA81FB8181
:102FA000AE1ABF0A6701612CF701E15BFD4F4F01CB
:102FB00080914E02862909F047C00E94D83085359D
:102FC00095400CF041C0D4010C93F601E858FE4F37
:102FD000E081EF3FE1F0D601A15BBD4F2C91F0E025
:102FE000521608F042C030E04A815B81241B350B49
:102FF000249FC001259F900D349F900D1124B50191
:103000000E942730262F402FCF010E94580763943B
:1030100055E0C50ED11C84E06812CACF9FEFE91AB3
:10302000F90AA5E0EA16F10409F0BCCF80914D023F
:10303000781202C010924D0280914E028F5F8D3146
:10304000F8F480934E02E5CAF601E15BFD4F808102
:10305000882309F4BACF801708F0B7CF90914D02BA
:103060007912B3CF81508083B0CF029FC001112469
:103070006A817B810E942730462F20E060E0C4CF28
:1030800010924E0229E532E083E044E552E09FEFE2
:10309000900FAFE4B2E0F901833041F41F966C91D8
:1030A0001F97061303C01F969C931F97608160179C
:1030B00010F090830583119631964A175B0761F7EC
:1030C0008150255031098111E4CFA3CA8BE496E0E9
:1030D0000E94780A30CC85E496E0FACF8091ED0228
:1030E00021E0382F321B08F430E0832F6CE276E0C9
:1030F0000E94AF0920CC6CE276E080E0F9CF8091AD
:10310000ED0221E0482F421B08F440E0842F61EFDC
:1031100075E0EECF61EF75E0F0CF8091ED0221E038
:10312000582F521B08F450E0852F6FEB75E0E0CF6D
:103130006FEB75E0E2CF8091ED0221E0382F321B7A
:1031400008F430E0832F67EA75E0D2CF67EA75E0D4
:10315000D4CF8091ED0221E0482F421B08F440E0DB
:10316000842F61E975E0C4CF61E975E0C6CF809135
:103170001101582F550F580F5983F3E0FF2EF50E0C
:10318000EF2C8CE08F1510F4ECE0EE2EB981AB2F14
:10319000B0E0BB83AA83FA81F93088F02A813B81B1
:1031A00033273B832A8378E2D72E5A815E1528F194
:1031B00081E08A839BE09F1508F057CA2ACAEA81FA
:1031C000FB81E858FE4F84A590911201892379F084
:1031D00060911B0370911C0380911D030E94E00805
:1031E000462F282F672F8A819B810E945807EA81EA
:1031F000FB813196FB83EA83CECFEA81FB81E858DD
:10320000FE4F84A5909112018923E9F0B0901C0330
:10321000C0901D0300911B03809163029091640292
:103220000E94521160911E038D9D000D1124600FAC
:103230007B2D8C2D0E94E008462F282F672F8A8136
:103240009B810E9458074A815B814F5F5F4F5B8380
:103250004A83ABCF80911101A82FAA0FA80FA98391
:103260000A2F0D5FD02E0D3010F06CE0D62E20917D
:103270001E0331E0230F08F42FEF30E050E040E070
:103280006FEF7FEF80E090E00E9450317901F9818B
:10329000EF2FF0E0FB83EA83CC24C3944A814930CA
:1032A00060F08A819B8199279B838A83BA81BD15AF
:1032B00008F44CC0E1E0EA83D6C9EA81FB81E85812
:1032C000FE4F84A590911201892331F12091ED02E6
:1032D0002150022E000C330B27FF25C0C70160913F
:1032E0001E032C2D620F08F46FEF0E94D608609128
:1032F0001B0370911C0320911D038095382F329F72
:10330000312D1124832F0E94E008462F282F672F8C
:103310008A819B810E9458074A815B814F5F5F4F82
:103320005B834A83BBCFF901E351FD4F8189481389
:103330000AC0F901EE0FFF1FE351FD4F818D928D01
:103340008E159F0560F221503109C6CFEA81FB81BD
:10335000E858FE4F84A590911201892379F060917D
:103360001B0370911C0380911D030E94E008462FEF
:10337000282F672F8A819B810E945807AA81BB81D1
:103380001196BB83AA8392CF80911101F82FFF0F72
:10339000F80FF9830F2F0D5FF02E0D3010F09CE029
:1033A000F92E20911E0331E0230F08F42FEF30E0B7
:1033B00050E040E06FEF7FEF80E090E00E945031FE
:1033C00069013981232F30E03B832A83EE24E39483
:1033D0004A81493048F0CA80DB80DD24CF1408F4EC
:1033E0004BC0F1E0FA833FC9EA81FB81E858FE4F08
:1033F00084A590911201892331F12091ED02215091
:10340000022E000C330B27FF24C0C60160911E035F
:103410004E2D640F08F46FEF0E94D60860911B03D5
:1034200070911C0320911D038095582F529F512DA0
:103430001124852F0E94E008462F282F672F8A81AC
:103440009B810E9458078A819B8101969B838A8376
:10345000BFCFF901E351FD4F818984130AC0F901FF
:10346000EE0FFF1FE351FD4F818D928D8C159D0551
:1034700068F221503109C7CFF601E858FE4F84A504
:10348000909112018923F9F0B0901C03E0901D0384
:1034900090911B03998380916302909164020E9432
:1034A000521160911E03A981B8E28B9FA00D1124D7
:1034B0006A0F7B2D8E2D0E94E008462F282F672F44
:1034C000C6010E945807EFEFCE1ADE0A87CF80911F
:1034D0001101282F220F280F2A832D5F2983622EA6
:1034E0002D3010F0BCE06B2E5A81452F50E05B83ED
:1034F0004A839A819930F8F07090ED02AA81BB81DD
:10350000BB27BB83AA83CD01880F991FFC01E85814
:10351000FE4F7F01FDEEAF2EF2E0BF2EA5E05A2E4A
:103520008A81861530F191E09A83A981AC3008F444
:103530009CC80C940913EA81FB81E858FE4F84A5CE
:1035400090911201892379F060911B0370911C0303
:1035500080911D030E94E008462F282F672F8A8143
:103560009B810E9458078A819B8101969B838A8355
:10357000C0CFEA81FB81E858FE4F84A590911201EB
:10358000892311F130901B0340901C0366E0C62E86
:1035900063E0D62E7DEE872E72E0972E00E0882D18
:1035A0008A198715D8F020911D03029F012D11243F
:1035B000632D742D802F0E94E008462F282F672F3F
:1035C0008A819B810E9458074A815B814F5F5F4FD0
:1035D0005B834A8352E0E50EF11CA2CFD7015496DB
:1035E0004C915497F4018181481B550B55962C91B1
:1035F0008185281B330B449FB001459F700D700DD2
:103600001124229FC001239F900D900D1124860F3D
:10361000971F0E947E08282E60911E0321E0620FF2
:1036200008F46FEFD6018D919D916D010E94D6082F
:10363000259C800D911D11248F3F910519F010F0EC
:103640008FEF90E08095282F020F08F40FEF3FEFE7
:10365000831A930AA4CF80911101B82FBB0FB80F22
:10366000BA83BD5FB9836B2EBD3010F05CE0652E70
:10367000EA81EE2EF12C58E05E1508F04CC07090F7
:10368000ED02C70199279B838A83880F991FDC016C
:10369000A858BE4F7D013DEEA32E32E0B32E45E08B
:1036A000542E8A81861508F03ECFEA81FB81E858C6
:1036B000FE4F84A590911201892319F130901B03CC
:1036C00040901C0386E0C82E83E0D82E9DEE892E04
:1036D00092E0992E00E0882D8A19871508F446C0DB
:1036E00020911D03029F012D1124632D742D802F25
:1036F0000E94E008462F282F672F8A819B810E9415
:1037000058074A815B814F5F5F4F5B834A8352E07A
:10371000E50EF11CC6CFF701E858FE4F84A5909145
:1037200012018923F9F0D0901C0300911D03F09140
:103730001B03FA8380916302909164020E945211EC
:1037400060911E032A8138E2839F200D1124620FAD
:103750007D2D802F0E94E008462F282F672FC7015C
:103760000E9458074FEFE41AF40A85CFF701448905
:10377000D40111968C911197481B550B25891996E8
:103780008C91281B330B449FB001459F700D700D29
:103790001124229FC001239F900D900D1124860FAC
:1037A000971F0E947E08282E60911E0321E0620F61
:1037B00008F46FEFD6018D919D916D010E94D6089E
:1037C000259C800D911D11248F3F910519F010F05B
:1037D0008FEF90E08095282F020F08F40FEF3FEF56
:1037E000831A930A78CF10930F0180911A03837084
:1037F00080930E010E94F8110C94461380911903D6
:10380000882351F048E050E068E170E08AE193E0FD
:103810000E941C31109219034091E9025091EA0272
:103820006091EB027091EC022FB7F89480919402B2
:1038300090919502A0919602B09197022FBF841BA0
:10384000950BA60BB70B4097A105B10510F40C948E
:10385000AA12109214010C94AA128091DE01909188
:10386000DD01892B8093B2019091DC01992391F0C5
:10387000892B8093B20120E084EB91E0FC0131912F
:10388000CF0131112F5FF1E08A3B9F07B9F721117A
:103890001092DC0148E050E064ED71E082EB91E0D1
:1038A0000E94E830892BA9F088E0E2EBF1E0A4ED7A
:1038B000B1E001900D928A95E1F7E0918F02F091CD
:1038C0009002309731F00280F381E02D82EB91E09D
:1038D00009950895CF931092DE01C6E0E4EBF1E084
:1038E000DF018C2F1D928A95E9F790E080E00E941D
:1038F000CA0490E080E00E94A5041092DD010E94BD
:103900002D1CE7E0F2E0DF011D92CA95E9F7109265
:10391000000210920102109202020E946D0CCF91DF
:103920000895AAE2B0E0E7E9FCE10C94643087EA8C
:1039300092E02091F100FC012193CF01F2E08F3A57
:103940009F07B9F78091A802833009F470C0B8F4DA
:10395000813009F447C0823009F4B1C08091E80099
:1039600083FF7EC28091A7029091A8029A3008F04E
:1039700077C2E92FF0E0EB51FE4C0C944F308A30C7
:1039800009F48CC08B3009F46FC0893039F780910D
:10399000A702813219F78091AB029091AC02029795
:1039A000E8F68091E800877F8093E8008091E80046
:1039B00082FF38C09091F3008091F200029731F4B9
:1039C0008091F100813011F0863021F48091F10076
:1039D00080939A028091E8008B778093E8000E94A0
:1039E0004603BCCF8091A702813A09F0B7CF8091FE
:1039F000E800877F8093E8008091AB029091AC0251
:103A0000892B61F468E08BE992E070E00E94F20398
:103A10008091E8008B778093E800A0CF60E090E091
:103A200080E0F3CF8091A5028111C0CF97CF809124
:103A3000A702813A09F092CF8091AB029091AC023B
:103A4000892B09F08BCF8091E800877F8093E80075
:103A50008091E80080FFFCCF809110018093F100FD
:103A60008091E8008E77B9CF8091A702813209F06A
:103A700075CF8091AB029091AC02892B09F06ECF8B
:103A80008091E800877F8093E8000E944603809140
:103A9000A902809310010E946A1C60CF8091A70246
:103AA000813209F05BCF8091E800877F8093E80046
:103AB0000E9446038091AA02809399024FCF809181
:103AC000A702813A09F04ACF8091E800877F80936E
:103AD000E8008091E80080FFFCCF80919902BECF82
:103AE000803899F0823809F0BBC18091AB028F70A9
:103AF000873008F0B5C18093E9008091EB0085FB29
:103B0000882780F91092E90006C08091A302909165
:103B1000A402911182609091E800977F9093E80051
:103B20008093F1001092F1008091E8008E7794C1AB
:103B3000882309F482C1823009F092C18091A902E0
:103B4000811185C18091AB028F702FEF280F263035
:103B500008F086C18093E9002091EB0020FF77C137
:103B6000933031F48091EB0080628093EB006FC161
:103B70009091EB0090619093EB0021E030E001C068
:103B8000220F8A95EAF72093EA001092EA008091CA
:103B9000EB008860EACF811163C11091A9021F7701
:103BA0008091E3008078812B8093E3008091E8008E
:103BB000877F8093E8000E9446038091E80080FFA1
:103BC000FCCF8091E30080688093E30082E01111D4
:103BD00083E08093A50244C18058823008F040C140
:103BE0008091A9029091AA028C3D23E09207A1F551
:103BF00083E08A838AE289834FB7F894DE011396C3
:103C000020E03EE051E2E32FF0E050935700E491D2
:103C100020FF03C0E295EF703F5FEF708E2F90E0C2
:103C2000EA30C0F0C7968D939D932F5F243159F7EA
:103C30004FBF8091E800877F8093E8006AE270E0E0
:103C4000CE0101960E94F2038091E8008B77809369
:103C5000E80006C1C096E7CF4091AB025091AC029C
:103C6000292F33272330310509F444C078F521305A
:103C7000310509F46FC08BE390E0EBEDF3E0223007
:103C8000310509F0EDC02091E800277F2093E8007E
:103C90002091AD023091AE028217930708F49C0187
:103CA00040E02115310509F064C0411162C08091E6
:103CB000E80082FDC9CF8091A502882329F28530D2
:103CC00019F28091E80083FFF2CFBECF2132310597
:103CD000A9F12232310509F0C3C04115510509F49B
:103CE00043C04130510509F0BBC08BE790E0E0E2F2
:103CF000F3E0C9CF992781309105C1F0009759F0C1
:103D0000029709F0ADC0E8E2F4E0E4918E2F90E074
:103D1000E8E2F4E007C0E4E6F4E0E4918E2F90E0FE
:103D2000E4E6F4E0009709F49BC0ADCFE2E5F4E0EF
:103D3000E4918E2F90E0E2E5F4E0F4CF41155105D7
:103D400071F04130510509F08BC089E090E0E6E068
:103D5000F4E099CF82E190E0E6E1F4E094CF89E0ED
:103D600090E0EDEEF3E08FCF80E490E0EBE9F3E05C
:103D70008ACF8091A502882309F466CF853009F4A3
:103D800063CF8091E80083FD5FCF8091E80082FDE2
:103D90008ECF8091E80080FF84CF9091F3008091D6
:103DA000F2002115310519F08830910550F041E0FD
:103DB000089709F040E08091E8008E778093E80052
:103DC00070CF44914093F100319621503109019612
:103DD000E8CF803809F044C08091E800877F809365
:103DE000E8008091A6028093F1009ECE811138C038
:103DF0001091A9021230A0F58091E800877F80938E
:103E0000E8001093A6020E944603112311F084E0FB
:103E100005C08091E30087FDFACF81E08093A50281
:103E200042E061EC81E00E94650342E261EC82E0E5
:103E30000E9465038091A50213C08091A902813080
:103E400079F481E0933009F080E08093A40210922D
:103E5000E9008091E800877F8093E8000E94460394
:103E60008091E80083FF0AC08091E800877F8093FB
:103E7000E8008091EB0080628093EB00AA96E3E07B
:103E80000C9480300E946A1C2FEF84E39CE0215048
:103E900080409040E1F700C0000088E19AE00FB652
:103EA000F894A895809360000FBE90936000FFCFB8
:103EB000882321F00E943B0F0E942D1C0895882327
:103EC00039F09091DE01982B9093DE010E942D1C19
:103ED00008958823D1F19CEF980F913A78F4E4EBA0
:103EE000F1E09191891303C0DF0111971C9291E0D9
:103EF000EA3BF907B1F70E942D1C089590E2980F54
:103F0000983050F4877091E001C0990F8A95EAF7D4
:103F1000892F0E943B0FEFCF9BE5980F933028F439
:103F200090E080E00E94CA04089598E5980F9B31C4
:103F300028F490E080E00E94A504089593E3980F90
:103F4000933118F460E00E947A100895CF93C82F3F
:103F50008823B1F08CEF8C0F813A00F5E4EBF1E0AF
:103F60008AEB91E0DF012D91C21761F08A179B0760
:103F7000D1F76C2F82EB91E00E948B040E942D1CE4
:103F8000CF9108952191C21303C0DF0111971C92B4
:103F90008E179F07B9F70E942D1CEBCF80E28C0F84
:103FA000883068F4C77021E030E001C0220FCA9564
:103FB000EAF78091DE01822B8093DE01DFCFEBE513
:103FC000EC0FE33040F4F0E0E85EFE4F808190E0DB
:103FD0000E94CA04D5CFE8E5EC0FEB3150F4F0E0D5
:103FE000EE0FFF1FE55EFE4F808191810E94A504C8
:103FF000C7CF83E38C0F833118F661E08C2F0E94CA
:104000007A10BECF1F93CF93DF93182FD0E0C0E07C
:10401000893311F4C0E5D0E0812F0E94A61F2097BC
:1040200039F4812F0E94691FDF91CF911F9108956C
:104030008FE99FE00197F1F700C000002197EFCFD3
:10404000B0E0A0E0E6E2F0E20C945D30EC018AE042
:10405000A82EFE012491222309F497C0213009F0F3
:104060003EC031968491813031F42296FE018491D4
:104070000E94022007C0823039F42296FE0184910A
:104080000E94A61F2196E5CF833031F42296FE01CF
:1040900084910E94691FF6CF843009F074C0229683
:1040A000FE01249190E080E0FE0131962053330B15
:1040B0002A30310548F0019728F3EFE9FFE0319706
:1040C000F1F700C00000F7CFA89EA001A99E500DF7
:1040D0001124C901840F951F2491EF01E5CFE22F30
:1040E000F0E0E856FB4FB490822F86958695869532
:1040F00090E0FC01E857FB4FE4902770F12C022E72
:1041000002C0F594E7940A94E2F731E0E322FF2439
:10411000FC01E858FB4FC490D12C022E02C0D5946C
:10412000C7940A94E2F7E1E0CE22DD24FC01E859CD
:10413000FB4F049110E002C0159507952A95E2F710
:1041400001701127E114F10419F081EE0E94A61FFD
:10415000C114D10419F086EE0E94A61F8B2D0E9477
:104160000220C114D10419F086EE0E94691FE114E7
:10417000F10419F081EE0E94691F0115110509F47F
:1041800081CF8CE275CFEF017DCFCDB7DEB7EAE00E
:104190000C9479300F931F93CF93DF93C62FD42FB6
:1041A000022FFC0185818823A9F0609318030E94E7
:1041B0007F049093170380931603C77081E001C0BA
:1041C000880FCA95EAF70E945F1FDF91CF911F9178
:1041D0000F91089580911803681332C080911603DF
:1041E000909117030E946404883C910548F510E201
:1041F0001D0FCD17B9F080E28C0F883040F4C770E6
:1042000081E001C0880FCA95EAF70E94581F183054
:1042100048F481E09D2F977001C0880F9A95EAF7C6
:104220000E945F1F802F0E940220183070F6D77006
:1042300081E001C0880FDA95EAF70E94581FC5CFC8
:10424000C77081E001C0880FCA95EAF7F6CF6F9278
:104250007F929F92AF92BF92CF92DF92EF92FF92A6
:104260000F931F93CF93DF9300D000D0CDB7DEB76D
:1042700019821A821B821C8201E511E096E5E92E63
:1042800091E0F92E99249394CC24C394D12C3AE54F
:10429000A32E31E0B32EF80181918F018F3F09F4F5
:1042A00048C0F894E82FE295EF70F0E021A18F70FC
:1042B000A60102C0440F551F8A95E2F7CA01922F4A
:1042C000982B91A392A18095892382A3789400C012
:1042D00086E5682E81E0782EDE011196692D6095C5
:1042E000F30191913F018D919D01215031099F3F33
:1042F00009F46AC0492F42954F7050E0FA0140A17D
:1043000050E09F7002C0559547959A95E2F740FDA1
:104310005BC08929F9018083A614B70409F7F80165
:10432000319780818F3F11F00E94D80CF0EAFA9506
:10433000F1F7990CE016F10609F0ADCF44E050E03A
:10434000BE016F5F7F4F86EE91E00E94E830892BBF
:10435000E9F189819A81AB81BC818093E6019093D8
:10436000E701A093E801B093E90181E08093E501C2
:104370000E947F049093E4018093E3018091E30124
:104380009091E4010E946404059720F144E050E01C
:1043900066EE71E08CEE91E00E94E830892B69F1C5
:1043A0008091E6019091E701A091E801B091E901C7
:1043B0008093EC019093ED01A093EE01B093EF0197
:1043C00081E01092E50107C08623A4CF8091E5012A
:1043D0008111D4CF80E00F900F900F900F90DF915C
:1043E000CF911F910F91FF90EF90DF90CF90BF90F2
:1043F000AF909F907F906F90089580E0E2CF909172
:10440000EB0192FB222720F9281779F080FB92F923
:104410009093EB016091EA017091EB0184E090E0F0
:104420000E944A3182E00E942B100895A8E0B0E07B
:10443000ECE1F2E20C94653066EE7EEF90E080E015
:104440000E944A3160E082E090E00E942C3160E0FE
:1044500083E090E00E942C311092E0011092DF0185
:1044600060E074E184E090E00E944A3160E086E020
:1044700090E00E942C316FEF87E090E00E942C3199
:1044800040E050E0BA0188E090E00E943E3160E0F8
:1044900084E290E00E942C3160E087E190E00E948D
:1044A0002C3160E08CE090E00E942C3160E08DE0E7
:1044B00090E00E942C3119821A821B821C821D827C
:1044C0001E821F82188648E050E068E170E0CE014D
:1044D00001960E941C3140E050E0BA0180E290E079
:1044E0000E943E3140E050E0BA018FE090E00E942F
:1044F0003E3140E050E0BA0183E190E00E943E315D
:104500002896E2E00C948130B0E0A0E0EAE8F2E224
:104510000C945D308C01DC0114968C9114978823E7
:1045200009F4B1C021E04C9111965C91119712965B
:104530006C91129713967C91139715969C910E94FB
:104540007611EC01FC01E054FE47EF30F10508F074
:1045500079C0E151FE4CD80115968C910C944F30E6
:10456000882321F084EE90E00E942020F8018581CC
:10457000882309F462C410921803CE0190578397E0
:1045800008F045C484E090E00E9416319093EB015E
:104590008093EA01FE01E150F047E232F10508F0B4
:1045A0008EC0E250FE4C0C944F308823F9F280EE1E
:1045B00090E0DACF8823D1F28CED90E0D5CF88233C
:1045C000A9F288ED90E0D0CF882381F284ED90E0CD
:1045D000CBCF882359F280ED90E0C6CF882331F20B
:1045E0008CEC90E0C1CF882309F288EC90E0BCCF3E
:1045F000882309F4BBCF84EC90E0B6CF882309F47C
:10460000B5CF80EC90E0B0CF882309F4AFCF8CEB2E
:1046100090E0AACF882309F4A9CF88EB90E0A4CF3B
:10462000882309F4A3CF84EB90E09ECF882309F47C
:104630009DCF80EB90E098CF882309F497CF8CEA48
:1046400090E092CFFC01E851FC47E730F10508F01B
:104650008DCFE05EFD4C0C944F3026E241EE61EED2
:10466000C8010E94CA208091D301877061F0D801EF
:1046700015968C91882339F08091EB0182FF03C05D
:1046800082E00E942B10CDB7DEB7EAE00C947930BF
:1046900027E245EE65EEE4CF26E241EE60EEE0CFA4
:1046A00027E245EE64EEDCCF26E241EE62EED8CFA3
:1046B00027E245EE66EED4CF28E241E0EBCF8091D1
:1046C000EA0181608093EA0195C08091EB018860E6
:1046D0008093EB018FC08091EA018260F3CF8091DB
:1046E000EA018460EFCF8091EA018860EBCF80918E
:1046F000EB018160EDCF8091EB018260E9CF809189
:10470000EA018061DFCF8091EA018062DBCF809196
:10471000EA018064D7CF0E946A1C8091EA01806818
:10472000D1CF8091EA018C60CDCF8091EB01836085
:10473000CFCF8091EA018E7FC5CF8091EB01877F3B
:10474000C7CF8091EA018D7FBDCF8091EA018B7F39
:10475000B9CF8091EA01877FB5CF8091EB018E7F41
:10476000B7CF8091EB018D7FB3CF8091EA018F7E2F
:10477000A9CF8091EA018F7DA5CF8091EA018F7B3F
:10478000A1CF0E946A1C8091EA018F779BCF809114
:10479000EA01837F97CF8091EB018C7F99CF809145
:1047A000EA0182FB992790F921E0922790FB82F998
:1047B00090FB83F987CF8091EB01982F90959170B2
:1047C0008E7F892B90FB81F983CF9091EA01892F0D
:1047D0008F7B96FF806476CF0E946A1C9091EA01DD
:1047E000892F97FB87F980586DCF61E08EE090E0CC
:1047F0000E942C316091EA017091EB0184E090E01D
:104800000E944A310E946A1C2ECF60E0EFCF909147
:10481000EA01892F8F7E94FF806154CF9091EA0145
:10482000892F8E7F90FF81604DCF9091EB01892F72
:10483000877F93FF88604CCF8091BA0181110FC0B0
:1048400089E2E4EBF1E02AEB31E09191891303C0B6
:10485000DF0111971C922E173F07B9F7EBC285E3D2
:10486000F0CF80911A0391E0892780931A03109268
:10487000140180911903816080931903F4CE4CE7F1
:1048800055E066E875E00E94FC04EDCE46E855E090
:104890006CE775E0F8CF48E655E062E775E0F3CFE6
:1048A00042E755E068E675E0EECF4EE455E06BE593
:1048B00075E0E9CF4BE555E06EE475E0E4CF44E305
:1048C00055E061E475E0DFCF41E455E064E375E075
:1048D000DACF48E155E066E275E0D5CF46E255E033
:1048E00068E175E0D0CF81E00E94AB02BCCE85E0EC
:1048F000FBCF8DE0F9CF82E1F7CF0E946A1CFFEF7A
:1049000024E33CE0F15020403040E1F700C00000DB
:104910000E9453046FEF7FEF90E080E00E944A31E5
:104920000E94421F8091EB0182FB882780F991E071
:1049300089270E94FF21F8018581C081D1818823C8
:1049400009F44DC0CE010E944C0FF82E682FCE0105
:104950000E94FA0FBE018F2D0E94D40D0E941D0EE1
:10496000D82FC92FA82ED8011596CC90159716963A
:10497000BC90B2943FE0B3228091D3018770F1F0F4
:10498000EC2CCC20E1F0892F807F803451F080E244
:104990008D0F883098F0B11004C0892F807E80324E
:1049A00069F08091EB0182FF09C082E00E942B1028
:1049B0008091D3018770EE24E3948111E12CDC2EE9
:1049C000D2942FE0D222BBE0BD1508F46DC0ED2DCE
:1049D000F0E0E95DFD4C0C944F3080E0AACFCE01B1
:1049E0000E94B40FF82EB6CFEC2FEF70FE2EC07FD2
:1049F00019F0F29490EFF922CC20B9F0FF2069F081
:104A000080E28D0F883010F0A11009C08091DE0186
:104A1000F82AF092DE010E942D1C8D2F43C0809158
:104A2000DD01F82AF092DD01F6CF8D2F0E94691F7B
:104A3000FF20D1F1D05ED83010F0A11004C08F2D2E
:104A40000E943B0F06C0F0948091DD01F822F092A5
:104A5000DD010E942D1C28C0FC2FFF70FF2EC07F9F
:104A6000C03219F0F29480EFF822AA2059F021E028
:104A7000A21609F479C0CC2009F485C0BB2009F442
:104A800047C0CBCF8091EB0182FD3EC0CC20B1F17D
:104A9000FF2039F08091DE01F82AF092DE010E94B9
:104AA0002D1C80E00E94A61FED2DE850FF0B3497CF
:104AB00010F40E94EF04EE20B1F08091D30180FD4C
:104AC00012C0D80115961C928695869586950E94EF
:104AD0004210C8010E9484228091D3018695869558
:104AE00086950E94191020E0F80140815181628171
:104AF0007381848195810E947611C5CD80E00E94EA
:104B0000691FFF2089F29BCFCC20A1F0B11004C017
:104B10008F2D0E945F1FC8CF31E0B312C5CF8091A7
:104B2000DC019F2D9823F91609F4BECFF82AF092E4
:104B3000DC01BACFB110B8CF8F2D0E94581F9091D1
:104B4000DC018F2D892329F08F2D80958923809377
:104B5000DC018091BB019F2D982309F4A5CFF0942F
:104B6000F822F092BB01A0CFCC2029F085E08B1574
:104B700008F49ACFCDCF94E09B1508F495CF8F2DF4
:104B80000E94581F91CFBB20D1F3A9E3AA1209C0FC
:104B9000BFEFE7EEF3E0B150E040F040E1F700C0D6
:104BA00000008D2F0E94691F7FCF8C2F86958695E0
:104BB000837069F0813009F077CF8D2F9C2F93702F
:104BC000C11002C080E090E00E94A5046DCF8D2F3F
:104BD0009C2F9370C11002C080E090E00E94CA0434
:104BE00063CF6C2D8D2F0E947A105ECF8C2F837037
:104BF00009F03FC0C11058CF4D2F429546954770E0
:104C0000440F440F2D2F2F7030E0042E02C0220FCE
:104C1000331F0A94E2F790E080E0D4FF09C08FE0F0
:104C200090E002C0880F991F4A95E2F78095909511
:104C3000C695C695C370C23099F078F44091DF01F3
:104C40005091E001C13039F0822B932B84239523BE
:104C50000E94521029CF242B352B822B932BF8CF77
:104C6000822B932B2091DF013091E0018227932743
:104C7000EFCF8695CC2011F08C2F8170882309F41A
:104C800013CF4D2F429546954770440F440F2D2F5B
:104C90002F7030E0042E02C0220F331F0A94E2F777
:104CA00090E080E0D4FF09C08FE090E002C0880F60
:104CB000991F4A95E2F780959095C695C695C37061
:104CC000C23099F078F44091630250916402C1308F
:104CD00039F0822B932B842395230E941410E4CE69
:104CE000242B352B822B932BF8CF822B932B2091C7
:104CF00063023091640282279327EFCFCF70CC20DC
:104D000029F08C2F0E9442108D2F03CF8D2F0E94EF
:104D1000581F8C2F0E941910C7CE8D2F22EFA2167C
:104D200099F12A1570F030EFA316D1F091EFA91682
:104D300091F0CC2009F45BC0B1106FCE8C2F8F7135
:104D400027C0A3EFAA1639F1B4EFAB12F2CF8091CE
:104D5000EB0182FD2EC08C2F8F71CC20D9F218C0B0
:104D6000CC2069F0E4E0EB1508F49ECECF7181E031
:104D700090E002C0880F991FCA95E2F7B8CFF5E01E
:104D8000FB1508F491CEF2CF8C2F8F71C110C2CFDA
:104D90000E94421089CE90E080E0CC2009F49DCFA3
:104DA000CF7181E090E002C0880F991FCA95E2F7A9
:104DB00094CFCC2089F0CF718C2F0E94421080912B
:104DC000EB0182FF07C028E0C29FC001112483606D
:104DD0008093D3018C2FDCCF81E00E942B1031E037
:104DE0003B1508F061CE82E00E942B105DCEBB2007
:104DF00059F0893309F0D5CE8FEF97EEA3E08150BB
:104E00009040A040E1F7CBCE8C2F8F7183CFC6317D
:104E1000FCE7DF0729F58091DE018A7A91E009F449
:104E200090E09093BA0169E2811165E382EB91E031
:104E30000E948B040E942D1C16CCC6312CE7D20791
:104E400009F4FACC8091DE018272FE01E052F8474B
:104E5000E531F10508F06FCDED5CFD4C0C944F3061
:104E6000C3303CE7D30709F455CD50F4C1159CE796
:104E7000D90709F442CDC130DC4709F451CD5BCDEF
:104E8000CB35BCE7DB0709F4A8CDCC35ECE7DE0772
:104E900009F448CDCA35DC4709F04DCD81E049CD54
:104EA000CF93DF938091D201807F09F04DC0809134
:104EB000D101882309F448C0E091E8025091AF0283
:104EC000C091CD01D091CC016091CE017091CF0104
:104ED00047E05E17C9F18E2F90E0E49FF0011124A6
:104EE000E055FD4F2481222391F1489FF001499F15
:104EF000F00D1124DF01A055BD4F11962C91119793
:104F00002C1325C02C912D1322C015962C9115978A
:104F100021111DC012962D913C91261B370B283C68
:104F20003105A8F48091D2018F7080618093D20105
:104F3000EA54FD4F80818F70806180838CEC91E01A
:104F40000E9484220E94420FDF91CF910895FC01BC
:104F50003196E770BECFA4E1B0E0E1EBF7E20C944C
:104F60005B308C0186E0F801DE011F9601900D9206
:104F70008A95E1F7F8018481E5809CECA92E91E007
:104F8000B92E9091D001911128C0882319F1EE20FB
:104F9000F1F0C8010E945710F82E8823C1F087E075
:104FA000F801D50101900D928A95E1F78091D00129
:104FB000813031F48091CC019091CD010E94800F1D
:104FC0000E9450278F2D6496ECE00C947730C80136
:104FD0000E948422FF24F394F5CFD080C180828088
:104FE0009380F090D1012091CE013091CF01A401A6
:104FF000421B530BFF2009F4D9C0483C510508F06F
:1050000092C08823F9F29091CD018091D201282F8E
:10501000207F09F056C0C91214C09091CC01D9125A
:1050200010C0E11048C08F7080618093D2018CEC79
:1050300091E00E9484228091D201F8018683F12CB4
:10504000C1CFE11038C06C2D8D2D0E94C4026C2D93
:105050008D2D0E94C402E82E8111F1CFDF86C88A0F
:105060008F8598890E94800F292F22952F702430D8
:1050700058F49F70223088F0992399F0F8019681B6
:10508000907F79F4FE2C9ECF2A5F2F70223068F03B
:10509000C8010E948422EF2CF5CF992311F08823B8
:1050A00089F3805E883070F3F3CF803F58F3815FDF
:1050B000833070F7E7CF8091D20181608093D20175
:1050C000BECFC91207C09091CC01D91203C0EE2007
:1050D00009F48DC0C8010E945710882309F477CFC6
:1050E000EE2009F474CF8091D201803288F02091B3
:1050F000CC013091CD01398728879B868A86909193
:10510000D0019C871D868E87CE0108960E9484223E
:1051100087E0F801ACECB1E001900D928A95E1F7DF
:105120000E94502757CF9091D201292F207F51F410
:105130008CEC91E00E94842287E0F50111928A951F
:10514000E9F77DCF882309F43DCF8091CD018C1103
:1051500010C08091CC01D8120CC0E1100AC0968317
:10516000C8010E94842287E0F50111928A95E9F72F
:1051700029CFC8010E945710882309F428CFEE20B8
:1051800009F425CF8091D201803210F22091CC0118
:105190003091CD013A8329839C828B829091D001FA
:1051A0009D831E828F83CE010196B0CF483C51056E
:1051B000D0F6882309F40ECFFE2CEE2009F407CF99
:1051C0008091CD018C1120C08091CC01D8121CC0DF
:1051D0008091D20180FD0FC0982F907F61F086836F
:1051E000903F31F0982F907F905F8F70892B86834E
:1051F000C8010E94842287E0F801ACECB1E0019084
:105200000D928A95E1F7DECEC8010E9457108111F8
:105210007FCF8091D20181608093D201C8010E942A
:105220008422D0CEABE1B0E0E8E1F9E20C94633047
:105230004E8B5F8B688F798F8A8F9B8F192F91117F
:105240001092DD011D8A86E0FE017696DE011F9632
:1052500001900D928A95E1F70A8D002341F021E03B
:105260004F85588969897A89C8010E9476110B8B0C
:105270001C8B87E0FE013F96DE01189601900D928F
:105280008A95E1F7CE0108960E94AB2781110CC0E8
:1052900087E0FE013896DE01119601900D928A9505
:1052A000E1F78C8581110BC017E08091E8029091A5
:1052B000AF02891331C06B96E4E00C947F302091EB
:1052C000AF0230E0C9010196877099274091E8024A
:1052D0004817190699F097E0929FD001939FB00D5F
:1052E0001124A055BD4FFE01319601900D929A9563
:1052F000E1F78093AF020E94420FD6CF0E946A1C52
:105300001092AF021092E80287E0ECECF1E0DF01CE
:105310001D928A95E9F7C8CF819FC001112480555D
:105320009D4F0E94AB27882331F28091E80290E0E4
:105330000196877099278093E802B7CFA6E0B0E086
:10534000E4EAF9E20C9463300E947F048C018091BE
:10535000E1019091E2018017910781F019821A8290
:105360000E947F04682F49815A81792F80E090E064
:105370000E9412291093E2010093E1012696E4E0D5
:105380000C947F301F920F920FB60F9211242F931F
:105390003F934F935F936F937F938F939F93AF93BD
:1053A000BF93CF93DF93EF93FF93D091E900DF702A
:1053B0008091EC00C82FC17080FDC0E81092E90018
:1053C0008091F000877F8093F00078940E94911C78
:1053D0001092E9008091F00088608093F000CD2B5E
:1053E000CF70C093E900FF91EF91DF91CF91BF9112
:1053F000AF919F918F917F916F915F914F913F916D
:105400002F910F900FBE0F901F9018951F920F9223
:105410000FB60F9211242F933F934F935F936F9387
:105420007F938F939F93AF93BF93EF93FF9380915D
:10543000E10082FF09C08091E20082FF05C08091F7
:10544000E1008B7F8093E1008091DA0080FF24C02F
:105450008091D80080FF20C08091DA008E7F8093F9
:10546000DA008091D90080FF9DC080E189BD82E192
:1054700089BD09B400FEFDCF81E08093A502809133
:105480009802811109C00E94F6020E949703809140
:10549000E20084608093E2008091E10080FF17C009
:1054A0008091E20080FF13C08091E2008E7F8093A4
:1054B000E2008091E20080618093E2008091D80058
:1054C00080628093D80019BC85E08093A50280910A
:1054D000E10084FF2BC08091E20084FF27C080E1BF
:1054E00089BD82E189BD89B5982F917080FFFBCF7E
:1054F0008091D8008F7D8093D8008091E1008F7ECD
:105500008093E1008091E2008F7E8093E2008091A1
:10551000E20081608093E2008091A602882309F472
:1055200047C084E08093A5028091A5028091E100AC
:1055300083FF27C08091E20083FF23C08091E100B8
:10554000877F8093E10082E08093A5021092A602FB
:105550008091E1008E7F8093E1008091E2008E7F58
:105560008093E2008091E20080618093E20042E05B
:1055700060E080E00E9465038091F0008860809385
:10558000F000FF91EF91BF91AF919F918F917F912B
:105590006F915F914F913F912F910F900FBE0F90A0
:1055A0001F90189519BC1092A5021092980274CF02
:1055B0008091E30087FD93E09093A502B5CF7894A6
:1055C0001F921FB61F9211248F939F93AF93BF9387
:1055D0008091940290919502A0919602B0919702C9
:1055E0000196A11DB11D8093940290939502A09302
:1055F0009602B0939702BF91AF919F918F911F90A8
:105600001FBE1F9018951F921FB61F9211248F93D3
:105610009F93AF93BF9380919302811113C08091A8
:10562000940290919502A0919602B09197024196B2
:10563000A11DB11D8093940290939502A0939602B0
:10564000B0939702BF91AF919F918F911F901FBE12
:105650001F901895CDB7DEB7AF970FB6F894DEBFA1
:105660000FBECDBF85B7806885BF85B7806885BF11
:1056700084B7877F84BF0FB6F894A89580916000A7
:10568000886180936000109260000FBE80E890E017
:105690000FB6F89480936100909361000FBE86ED81
:1056A0009CE09093B1018093B0010E94F6020E94A9
:1056B00097038091E20084608093E2007894809167
:1056C000A5028823A1F01091E9001F709091EC00D1
:1056D000892F817090FD80E8182B1092E90080914D
:1056E000E80083FD0E94911C1F701093E90092E076
:1056F00094BD83E085BD2AEF27BD90936E00809313
:10570000FB014DE6A42E41E0B42E4AE651E08A01A9
:10571000950161E070E0D9018D919D01E82FE2953E
:10572000EF70F0E0D1A08F707B0101C0EE0C8A9584
:10573000EAF79E2D90959D2191A382A18E2982A3A7
:10574000F80181918F01E82FE295EF70F0E0D1A090
:105750008F707B0101C0EE0C8A95EAF79E2D909523
:105760009D2191A382A18E2982A3A057B14099F6D1
:105770008FE891E00197F1F700C000001091FB0164
:105780006CEF71E0FB018E2F861B811708F457C068
:1057900001E511E0F80181918F018F3F11F00E9426
:1057A000D80CF1E006351F07A9F784E90E94D80C50
:1057B00086E60E94D80C87E90E94D80C86EC0E94ED
:1057C000D80C84E0ECEEF1E0DF01282F1D922A9541
:1057D000E9F7E6EEF1E0DF011D928A95E9F790E046
:1057E00080E00E941631863E9E4F11F00E941622E4
:1057F00082E090E00E940E318093F00184E090E01E
:105800000E9416319093EB018093EA010E942721B8
:10581000EFEFF6E721E0E150F0402040E1F700C073
:1058200000000E9427218091EC0184FF31C06FEFBE
:105830007FEF90E080E00E944A310E945304D5013E
:105840002D915D01822F82958F7090E0DC01909602
:105850008C9190E02F7002C0959587952A95E2F77C
:105860008170DA019D91AD01292F22952F7030E0D2
:10587000D90190962C9130E09F7002C03595279504
:105880009A95E2F790E020FD92E0892B81937BCFFF
:1058900083E090E00E940E3190E00E94521010923E
:1058A000ED028FEF9FEF9093070380930603909391
:1058B00009038093080390930B0380930A0390934A
:1058C0000D0380930C0390930F0380930E0390932A
:1058D000110380931003909313038093120390930A
:1058E00015038093140310920D0290932702809366
:1058F0002602909329028093280290932B02809392
:105900002A0290932D0280932C0290932F02809371
:105910002E02909331028093300290933302809351
:105920003202909335028093340290E080E00E942E
:105930001631863E9E4F21F00E9416220E941F12B1
:1059400081E08093190348E050E068E170E08AE16B
:1059500093E00E94FE301092190380911A038C7F0D
:1059600011F40E941F1284E091E0909390028093C2
:105970008F028CEE91E044E0480F4FA78091A50282
:1059800030E4F32E00E112E1853009F4D2C00E9428
:10599000272121EF622E21E0722EACEEB1E0BEA3F2
:1059A000ADA3F30191918D9121E0E53FF20709F458
:1059B000CAC09817B9F3512C412CF12CADA1BEA14E
:1059C000BD90BEA3ADA3F30181913F018B1509F4F6
:1059D00024C28B258AA76201E12CAA24A3948AA55C
:1059E0008A2109F40FC22B2C2A20EF8EF8A20E94E4
:1059F0007F049AA389A3F1E0FBA391E0211001C0E9
:105A000090E09CA34F8D58A169A17AA18BA10E941F
:105A1000122910926502109266021092670210928B
:105A20006802222039F0F601E858FE4F80818F3F4E
:105A300009F083C1312C032D10E080910D02800FFD
:105A4000912F911D09976CF1B8E08B2E912C801A43
:105A5000910AB801625F7D4FA4018EE092E00E943E
:105A6000F530B8016A5E7D4FA40186E192E00E94A4
:105A7000F530A401440F551FB801660F771F6A5D0A
:105A80007D4F86E292E00E94F530B801625E7D4F64
:105A9000A4018EE192E00E94F53088E083198093A2
:105AA0000D0280910D0290E0EFA1AE2FB0E09D01BC
:105AB000220F331F24573E4FAA0FBB1FBD01635750
:105AC0007E4F54C18091A502843029F10E943A1280
:105AD0001092930288E190E00FB6F894A895809315
