:100000000C948F020C94AC020C94AC020C94AC02D5
:100010000C94AC020C94AC020C94AC020C94AC02A8
:100020000C94AC020C94AC020C949C2B0C94582BAA
:100030000C94992C0C94AC020C94AC020C94AC0271
:100040000C94AC020C94AC020C94AC020C94AC0278
:100050000C94AC020C94752C0C94AC020C94AC0275
:100060000C94AC020C94AC020C94AC020C94AC0258
:100070000C94AC020C94AC020C94AC020C94AC0248
:100080000C94AC020C94AC020C94AC020C94AC0238
:100090000C94AC020C94AC020C94AC020C94AC0228
:1000A0000C94AC020C94AC020C94AC020501090255
:1000B000A10185020901A1000509190129081500FE
:1000C0002501950875018102050109300931158165
:1000D000257F95027508810609381581257F9501D0
:1000E00075088106050C0A38021581257F95017572
:1000F000088106C0C005010980A101850319012AF4
:10010000B700150126B700950175108100C0050CD8
:100110000901A101850419012AA002150126A002E6
:10012000950175108100C00660FF0961A101096297
:10013000150026FF00952075088102096315002629
:10014000FF00952075089102C005010906A101056F
:100150000719E029E7150025019508750181029529
:1001600001750881010507190029FF150026FF0008
:100170009506750881000508190129059505750181
:100180009102950175039101C0000000000000007C
:10019000000000000000000000000000000000005F
:1001A000000000000000000000000000007E0F00C2
:1001B000D4FFFFFFC700000078000000000000002F
:1001C000002A2B28000000000000000000000000B2
:1001D0000000000029000000002C1E3420212224F1
:1001E000342627252E362D3738271E1F202122237F
:1001F0002425263333362E37381F04050607080911
:100200000A0B0C0D0E0F10111213141516171819D6
:100210001A1B1C1D2F3130232D3504050607080934
:100220000A0B0C0D0E0F10111213141516171819B6
:100230001A1B1C1D2F3130354C0001010101010139
:10024000010101020202020202020202030303038D
:10025000030303030404040404040405050505055D
:10026000060606060607070707070808080809091B
:1002700009090A0A0A0B0B0B0C0C0C0D0D0D0E0EC6
:100280000E0F0F0F10101111111212131314141559
:100290001516161717181819191A1A1B1B1C1D1DCD
:1002A0001E1E1F2020212222232424252626272823
:1002B00029292A2B2C2D2D2E2F3031323233343553
:1002C000363738393A3B3C3D3E3F40414243444556
:1002D000464748494A4C4D4E4F5051535455565835
:1002E000595A5B5D5E5F616264656668696B6C6DDF
:1002F0006F7072737577787A7B7D7E808283858755
:10030000888A8C8E8F91939596989A9C9EA0A2A392
:10031000A5A7A9ABADAFB1B3B5B7BABCBEC0C2C497
:10032000C6C9CBCDCFD1D4D6D8DBDDDFE2E4E7E957
:10033000EBEEF0F3F5F8FAFDFF0000160A4A004D67
:10034000002A002701D1005200D200000000005016
:100350000051004F0028452B130000010000002B26
:100360000100000100010001000100010001000185
:100370000001000000000001000100010001000177
:100380000000000100000001000000010001000168
:100390000001000100010001000100000000000157
:1003A0000001000100010001000000010000000147
:1003B0000000000100010001000100010001000136
:1003C0000001000000000001000100010001000127
:1003D0000000000100000001000000010001000118
:1003E0000001000100010001000100000000000107
:1003F00000010001000100010000000100000001F7
:1004000000000023782578277822782078010021C1
:1004100078010000000000247826782878284529F3
:10042000780000010000002A7856015701DA00D94F
:1004300000DC00DB000100010001000100010001FF
:1004400000010001000100010001000100010001A4
:100450000001000100010001000100010001000194
:100460000001000100010001000100010001000184
:100470000009025B00030100A0FA09040000010367
:10048000010100092111010001224000070581033B
:100490000800010904010002030000000921110104
:1004A0000001222200070582032000010705030343
:1004B00020000109040200010300000009211101CC
:1004C0000001227B000705840320000112010002C5
:1004D00000000008840887080001010200012803C9
:1004E000430061006E006E006F006E0062006100EC
:1004F0006C006C0043005500520053004F00520046
:1005000050004100440000001003680061007900C1
:1005100061007300680069000000040309041124ED
:100520001FBECFEFDAE0DEBFCDBF23E0A0ECB1E02D
:1005300001C01D92AC32B207E1F711E0A0E0B1E0DA
:10054000EAEEFBE602C005900D92A03CB107D9F798
:100550000E94C02C0C945A350C940000482F209116
:10056000F3029091BA0257E0291302C080E0089587
:1005700030E0529FF001539FF00D1124E554FD4FE0
:100580008181681306C08081481303C08581811171
:10059000EECF2F5F3F4F2770E7CFE8EDF0E080818F
:1005A0008E7F80831092E2001092DA001092E100B8
:1005B000A0EEB0E08C9181608C9380818F778083F6
:1005C00019BCA7EDB0E08C918E7F8C9380818F7EDB
:1005D00080831092A30208952091E4003091E500F9
:1005E00095E6A9012091EC00822F817020FF06C0C2
:1005F0008091E80080FF06C080E008952091E80027
:1006000022FD1AC08091B002882389F0853089F0DC
:100610008091EB0085FD0FC02091E4003091E50052
:1006200042175307F9F29150E1F684E0089582E011
:10063000089583E0089581E008958091B20287FFD4
:1006400013C08091E80082FF06C08091E8008B779C
:100650008093E80004C08091B0028111F2CF089528
:100660008091B0028823D9F38091E80080FFF8CF11
:100670008091E8008E77ECCF982F9093E900242F9B
:10068000762F50E0891731F07091EC002091ED0049
:100690005091F00021FD07C09F5F973071F7809364
:1006A000E90081E008953091EB003E7F3093EB004C
:1006B0003091ED003D7F3093ED003091EB003160E3
:1006C0003093EB007093EC002093ED005093F0001A
:1006D0002091EE0027FDE0CF80E00895B0E0A0E09B
:1006E000E4E7F3E00C940634C8EDD0E088818F7E17
:1006F0008883E7EDF0E080818160808384E082BFC1
:1007000081E08093A30288818E7F888302EE10E0CF
:10071000F80110821092DA0081EEC82ED12CF60179
:10072000108288818F778883888180688883888118
:100730008F7D888319BC1092B0021092B102109282
:10074000AF021092AE0290EEE92EF12CF7018081FB
:100750008B7F808388818160888342E060E080E0D5
:100760000E943C03F60180818E7F8083F8018081A6
:1007700081608083808188608083F70180818E7FA3
:100780008083888180618883CDB7DEB7E8E00C94F0
:100790002234FC018091B8029091B9028617970724
:1007A000A0F06115710529F49091E8009E7790936F
:1007B000E80090E06115710551F4911108C0809135
:1007C000E80082FF34C080E00895BC01F2CF809140
:1007D000B0028823C1F18530C1F18091E80083FD2A
:1007E00030C08091E80082FDEACF8091E80080FF70
:1007F000E1CF8091F3002091F200382F611571054F
:1008000019F02830310558F091E02830310509F011
:1008100090E02091E8002E772093E800CBCF8191E3
:100820008093F100615071092F5F3F4FE7CF8091B6
:10083000B002882341F0853041F08091E80083FFC9
:10084000BECF81E0089582E0089583E0089580910D
:10085000A502089587E797E7909301088093000821
:1008600088E19AE00FB6F894A895809360000FBED7
:1008700090936000FFCF9C014FB7F89480919F0246
:100880009091A002A091A102B091A2024FBF821B41
:10089000930B08952FB7F89460919F027091A00276
:1008A0008091A1029091A2022FBF08952FB7F894D2
:1008B00080919F029091A002A091A102B091A2020A
:1008C0002FBF08959C01FC0132969FEF80E041917B
:1008D000461751F09F3F19F4411101C0982F8F5FC7
:1008E0008630A9F79F3F09F40895290F311D97FD20
:1008F0003A95F90162830895A3E0B0E0E2E8F4E0FC
:100900000C940C3420919C0230919D0228173907D9
:10091000A1F090939D0280939C02E0919A02F09145
:100920009B02309751F024E029839B838A830680C1
:10093000F781E02DCE01019609952396E2E00C9413
:100940002834A3E0B0E0E7EAF4E00C940C34209102
:1009500098023091990228173907A1F090939902D3
:1009600080939802E0919A02F0919B02309751F0A7
:1009700023E029839B838A830680F781E02DCE01C3
:10098000019609952396E2E00C942834E0919A02AE
:10099000F0919B02309729F00190F081E02D0995AC
:1009A000089580E00895FA01811101C0FB010995C5
:1009B0000895E4E7F2E0818360834283339692E016
:1009C000E839F907C1F70895FC01EE0FFF1FE80FA2
:1009D000F91FEC58FD4F6183408322830895E8EFAF
:1009E000F2E0248132E0231B08F420E0248380918C
:1009F00073028160809373020895E8EFF2E024812E
:100A000032E0230F08F42FEF24838091730281607A
:100A10008093730208959091F802937071F080931F
:100A2000F9026093FA02493C08F048EC4093FB025B
:100A300080917302822B809373020895E8EFF2E0B5
:100A4000438122E0421B08F440E0818121E0628181
:100A500090E00E940B050895E8EFF2E0438122E068
:100A6000420F08F44FEF818121E0628190E00E9403
:100A70000B050895E8EFF2E0628122E0621B08F4C2
:100A800060E0818121E0438190E00E940B050895A0
:100A9000E8EFF2E0628122E0620F08F46FEF8181FB
:100AA00021E0438190E00E940B050895E8EFF2E019
:100AB000818121E0438162818250990B0E940B0564
:100AC0000895E8EFF2E0818190E021E043816281C6
:100AD00002960E940B0508959091F802937061F0C0
:100AE00081110BC094609093F802109210018091D4
:100AF0007302862B809373020895803310F09C6BF1
:100B0000F2CF880F880F982BEECF8091F802869550
:100B10008695815009F48FE261E00E946C0508958A
:100B20008091F802869586958F5F803308F081E08A
:100B300061E00E946C050895EF92FF920F93970178
:100B4000201B31092F3F310519F010F02FEF30E055
:100B50002095382F320F08F43FEF832F0F91FF902D
:100B6000EF900895EF92FF920F939701201B3109A8
:100B70002F3F310519F010F02FEF30E0322F309574
:100B8000482F430F08F44FEF842F620F0F91FF900F
:100B9000EF900895EF92FF920F93972F093438F456
:100BA000B701601B71096F3F710519F010F06FEF0D
:100BB00070E0485F5F4F4131510540F0A901485F47
:100BC0005F4F4131510510F06FEF70E06095482F95
:100BD000460F08F44FEF842F37FF02C02D5F3F4FC1
:100BE00035952795359527956091F902620F792FF4
:100BF0000F91FF90EF900895EF92FF920F931F9344
:100C00000E0D1F2D111DF90137FF03C0F195E19560
:100C1000F10924E0EE0FFF1F2A95E1F7EF3FF10500
:100C200019F014F0EFEFF0E09A0157FF03C031958F
:100C30002195310994E0220F331F9A95E1F72E1781
:100C40003F070CF4F901E00FF11FEF3FF10519F038
:100C500010F0EFEFF0E0E095282F3E2F230F08F47F
:100C60002FEF822F1F910F91FF90EF900895EF9239
:100C7000FF920F93970195E0099F200D311D1124DC
:100C80002F3F310519F010F02FEF30E02095382F6D
:100C9000320F08F43FEF832F0F91FF90EF900895EC
:100CA00022E8241B08F420E0620F08954095282FC5
:100CB000429F412D1124842F0895E42FF0E0EE0F80
:100CC000FF1FE556FE4F9081921B97FD9195292FAE
:100CD00038E1239F212D1124620F08950F931F9354
:100CE00010E0F801EE0FFF1FE556FE4F9081905780
:100CF00097FD9195000F111FF801E957FE4F0589E7
:100D00000052110B2003F001219FF00D112408E384
:100D100010E0091B110997FD139540039001419FB5
:100D2000300D1124E20FF31F9F01220F331F2E0FEE
:100D30003F1F37FF02C021583F4F220F232F221F92
:100D4000330B620F1F910F9108950F931F93522F32
:100D500010E0F801EE0FFF1FE957FE4FA589A052E2
:100D6000BB0B9D015203F001539FF00D1124000FA6
:100D7000111FD801A556BE4F0C910057110B40030F
:100D80009001419F300D11242E0F3F1F37FF02C0ED
:100D900021583F4F220F232F221F330B620F1F9129
:100DA0000F910895EF920F93972F23E0029FB001C8
:100DB0001124759567956E0D792F0F91EF90089519
:100DC000322F50E0FA01EE0FFF1FE957FE4F9589D1
:100DD000905297FD9195440F551FFA01E556FE4F2D
:100DE0002081231B330B290F311D97FD3A95620F8C
:100DF0000895E42FF0E0EE0FFF1FE957FE4F6589DD
:100E0000621B0895E42FF0E0EE0FFF1FE556FE4F42
:100E10006081621B0895622F0895E42FF0E0EE0FC9
:100E2000FF1FE556FE4F408134EE439F412D1124B4
:100E3000E82FF0E050E0445E5F4FDA01A21BB109F9
:100E40009D01B7FF03C031952195310993E0220F31
:100E5000331F9A95E1F7AF01421B530B9A0157FDDF
:100E600020E0582F259F212D1124822F0895E42F53
:100E7000F0E0EE0FFF1FE556FE4F408134EE439F3A
:100E8000412D1124E72FF0E050E0445E5F4FDA017E
:100E9000A21BB1099D01B7FF03C03195219531090E
:100EA00093E0220F331F9A95E1F7AF01421B530BDA
:100EB0009A0157FD20E0279F212D1124722F0895BC
:100EC0000E94D90408950E94E4040895FC019B0146
:100ED000009729F480E077FF2BC080E80895AC01EB
:100EE00097FF04C044275527481B590BB901640FCD
:100EF000751F37FD10C0241B350BC901A5E0880FF5
:100F0000991FAA95E1F70E94DB3380E2861BF7FF69
:100F10000FC081950895CB0165E0880F991F6A95F0
:100F2000E1F7BA01621B730B0E94DB3380E6EECF60
:100F30000895EF920F93CF93DF93D72FC82FC90156
:100F40000E19BA010E946607602F681B7D2F8C2F37
:100F5000DF91CF910F91EF9008950F93CF93DF938F
:100F6000D72FC82FC901BA010E946607682F600FEA
:100F70007D2F8C2FDF91CF910F910895EF920F93DA
:100F80001F93CF93DF93D62FC72F182FC9010E19A8
:100F9000010FBA010E946607081B202F219F212DF7
:100FA0001124822F6D2F7C2FDF91CF911F910F91F4
:100FB000EF900895EF920F931F93CF93DF93D62F67
:100FC000172FC82FC9010E19070FBA010E94660713
:100FD000702F781B719F712D11246D2F8C2FDF9135
:100FE000CF911F910F91EF9008950F931F93CF937F
:100FF000DF93D62FC72F182FC901212F201B022FB7
:10100000BA010E946607982F990F990F891B800FCC
:10101000282F219F212D1124822F6D2F7C2FDF91CE
:10102000CF911F910F9108950F931F93CF93DF934B
:10103000D62F172FC82FC901272F201B022FBA0127
:101040000E946607982F990F990F782F791B700FC0
:10105000719F712D11246D2F8C2FDF91CF911F91D6
:101060000F910895E82F86FDE0952E2F2F7086FDB5
:101070002F5FE695E695E695E670F0E0E059FE4FC5
:101080009181929F902D212D112492959F702295F0
:10109000207F922B2081920F87FD919580E8890F08
:1010A00008950F931F93CF93DF938B01D82FC42FF5
:1010B000822F0E943208EC2FF0E0EE0FFF1FE55662
:1010C000FE4F90819058890F87FD8195880F682F7A
:1010D0002CE0629F612D1124600F712F8D2FDF9105
:1010E000CF911F910F91089540910C0150910D01E6
:1010F00025E038E0429FC001439F900D529F900D24
:101100001124875E994C90930D0180930C01890FF7
:101110000895AC018230910508F408959FEF413E97
:101120008EE1580740F49A0195E0369527959A95F7
:10113000E1F798E0920F61E0E62FE90FFF27FF1F2C
:101140009F0135952795822F229FF001239FF00D57
:10115000F00D11244E175F0738F49FEF920F96178A
:1011600058F78FEF860F08952F3FE9F361E0620F84
:10117000F6CF0F93CF93DF93D72FC82F47FD41951D
:1011800088E390E0841B910947FD9395889FB00107
:10119000899F700D700D1124229FC001239F900D17
:1011A000900D1124860F971F0E948908982F990F80
:1011B000890F682F600F7D2F8C2FDF91CF910F91BA
:1011C000089530E020E0869F212D969F200D311D4F
:1011D0001124C9010895AF92BF92CF92DF92FF927E
:1011E0000F931F93CF93DF93362F472FE82FF0E015
:1011F000E75CFD4F71110FC0E4918E2F2E2F6E2FE3
:10120000722FDF91CF911F910F91FF90DF90CF90C0
:10121000BF90AF900895C72FD0E02491F22E022FF7
:1012200010E056E0659FC0011124EFEFF0E0BF0130
:101230000E94C733832F90E0880F991F35E5369FB2
:10124000D001379FB00D11248A1B9B0B982F990F4B
:10125000980F6F01CC1ADD0AC09ED001C19EB00D5F
:10126000D09EB00D11248B2F499FA0011124452F32
:1012700055276F01C41AD50AC09EA001C19E500D0A
:10128000D09E500D11245F01A91AB108AC9E6001D7
:10129000AD9ED00CBC9ED00C1124CD2CDD24EC19BD
:1012A000FD09E09FE001E19FD00DF09FD00D1124DA
:1012B000ED2F62307105A1F050F46115710509F44C
:1012C0009ECF6130710581F0EB2F852F98CF643070
:1012D000710569F080F06630710509F490CFF4CFA4
:1012E000E22F2B2F8D2F8BCFE22F252F88CFEB2FA7
:1012F000822F2D2F84CF2B2F8F2DE52F80CFB0E085
:10130000A0E0E5E8F9E00C9407348C01FC01E95712
:10131000FE4F84A5682349F1D090FA02D091FB02D8
:10132000C091F902EC2EF12C0E947408282FC701FD
:101330008C549F4F68E671E00E94DB338E199F0941
:1013400097FD0396959587959595879523706C2FB6
:10135000289F600D11247D2D8D2F0E94EB08462FB4
:10136000282F672FC8010E946307CDB7DEB7E7E0DB
:101370000C9423342F923F925F926F927F928F92C0
:101380009F92AF92BF92CF92DF92EF92FF920F9314
:101390001F93CF93DF93CDB7DEB72A970FB6F8949C
:1013A000DEBF0FBECDBF8B837E836D838091120124
:1013B000282F220F280F2F832D5F29832A832D307A
:1013C00010F03CE03A83809100038C83FF81EF2F83
:1013D000F0E0FA87E987CF01880F991F9C01295710
:1013E0003E4F69013B81832F90E0FC013196F887E5
:1013F000EF838A8199859817E8F081E0E981EC30E4
:1014000008F080E02A960FB6F894DEBF0FBECDBF7D
:10141000DF91CF911F910F91FF90EF90DF90CF90D0
:10142000BF90AF909F908F907F906F905F903F9014
:101430002F900895E985FA85E957FE4F84A590918C
:1014400013018923F1F02090F9023090FA022F81E4
:10145000388520503D4F39015B8010E0FC815F16DC
:10146000D0F02091FB02129F112D1124B101812F88
:101470000E94EB08462F282F672F89859A850E94A6
:10148000630729853A852F5F3F4F3A87298732E0E6
:10149000C30ED11CAECFF30181913F01F601A488A8
:1014A000A81ABB088588F3018781881A9908AA9C25
:1014B0009001AB9C300D300D1124889CC001899C9B
:1014C000900D900D1124820F931F0E948908082F00
:1014D0006091FC0221E0620F08F46FEFF301EE0F60
:1014E000FF1FE050F340858996890E94E1087C0146
:1014F0009401A501B101812FED81FE8109951B01A8
:101500005394182FABCFB0E0A0E0E9E8FAE00C94D8
:1015100006348C0180911201C82FCC0FC80F23E034
:10152000D22EDC0ECD2C2CE02D1510F49CE0C92E13
:101530002091FC0231E0230F08F42FEF30E050E05F
:1015400040E06FEF7FEF80E090E00E94F734790198
:10155000D0E02C2FCC1550F081E0FBE0FD1508F415
:1015600080E0CDB7DEB7E8E00C942234FE01E95705
:10157000FE4F84A590911301892311F1409100033E
:101580004150042E000C550B47FF1CC0C701609151
:10159000FC0221E0620F08F46FEF0E94E108AC0149
:1015A0006091F9027091FA028091FB02F8010995AD
:1015B0000E94EB08462F282F672FCE010E94630759
:1015C0002196C7CFFA01E050FD4F818982130AC0EE
:1015D000FA01EE0FFF1FE050FD4F818D928D8E15A9
:1015E0009F05A8F241505109CFCFB0E0A0E0EBEF4A
:1015F000FAE00C9407347C0180911201C82FCC0FC3
:10160000C80F13E01C0F012F1D3008F00CE0609193
:10161000FC026695669521E0620F08F46FEF8091F9
:10162000F4029091F5020E94E108D82ED0E0C01794
:1016300048F081E01C3008F080E0CDB7DEB7E7E08D
:101640000C942334FE01E957FE4F84A590911301B9
:10165000892391F06091F9027091FA028091FB0266
:101660002D2D4C2FF70109950E94EB08462F282FAE
:10167000672FCE010E9463072196D9CFB0E0A0E08A
:10168000E4E4FBE00C9403346C0180911201C82F58
:10169000CC0FC80F13E01C0FB12E1D3010F03CE032
:1016A000B32E6091FC02669566958091F40290914C
:1016B000F5020E94E108F82E80E48F0D0E943208A6
:1016C00090E8A92EA80E8F2D0E94320820E8922EB5
:1016D000980ED0E0CB1548F081E01C3008F080E097
:1016E000CDB7DEB7EBE00C941F34FE01E957FE4F97
:1016F00084A5909113018923A1F06091F902709162
:10170000FA028091FB02EF2C0C2F292D4A2DF601B5
:1017100009950E94EB08462F282F672FCE010E94C3
:1017200063072196D7CFB0E0A0E0E9E9FBE00C9495
:10173000FF333C0180911201C82FCC0FC80F13E07A
:101740001C0FF12E1D3010F03CE0F32E6091FC02D6
:1017500066958091F4029091F5020E94E108582E5E
:10176000D0E0CE01880F991F9C0129573E4F690197
:10177000CF1548F081E01C3008F080E0CDB7DEB72F
:10178000EFE00C941B34FE01E957FE4F84A59091C5
:101790001301892379F1F6018489282F2057330B0F
:1017A00059018589E82FE052FF0B4F01AA9C900157
:1017B000AB9C300D300D1124EE9FC001EF9F900DBA
:1017C000900D1124820F931F0E948908082F6091A9
:1017D000F9027091FA028091FB02E52C9401A501B7
:1017E000F30109950E94EB08462F282F672FCE01A1
:1017F0000E946307F2E0CF0ED11C2196B9CFB0E072
:10180000A0E0E5E0FCE00C9404346C01809112014E
:10181000C82FCC0FC80F13E01C0FB12E1D3010F0D5
:101820003CE0B32E6091FC0266958091F4029091A9
:10183000F5020E94E108A82ED0E0CE01880F991F82
:101840009C0129573E4F7901CB1548F081E01C30AF
:1018500008F080E0CDB7DEB7EAE00C942034FE015A
:10186000E957FE4F84A5909113018923C1F0F70138
:1018700025892052330B44894057550B6091F9025A
:101880007091FA028091FB020A2DF60109950E94DF
:10189000EB08462F282F672FCE010E946307F2E046
:1018A000EF0EF11C2196D0CF1F93CF93DF93EC0165
:1018B000FC01E957FE4F84A56823B1F00E9474082B
:1018C000182F0E94740820E8829FC00111247FE72E
:1018D000790F612F8091FB020E94EB08462F282F81
:1018E000672FCE010E946307DF91CF911F9108956A
:1018F0000E9456049C019091140280911502982B2D
:1019000021F03093110220931002909116028091E1
:101910001702982B21F030930F0220930E02E091D2
:101920009A02F0919B02309749F082E08093120274
:101930000480F581E02D82E192E00995089580917F
:101940000D0280FD16C081FD16C082FD16C080917B
:101950000C028823A1F0883280F428E0829FC00125
:10196000112468E270E00E94DB33862F672B39F088
:10197000089582E0089584E0089588E0089581E064
:10198000089580910D0280FD14C081FD14C082FD78
:1019900016C080910B02882381F08E3180F420E5FF
:1019A000829FC00111246EE170E00E94DB33862F1C
:1019B000089584E1089588E2089588E0089580E517
:1019C000089580E00895F894E82FE295EF70F0E034
:1019D00031A1282F2F7081E090E001C0880F2A9557
:1019E000EAF7982F9095932391A392A1892B82A334
:1019F000789408959091F50192FF06C0282F2871E0
:101A00002830F9F4877F846093FF06C0282F28715F
:101A10002831F1F4877E84612091F60120FF06C011
:101A2000382F38713830D9F4877F816021FF06C0A4
:101A3000282F28712831D1F4877E816194FD877E1B
:101A40000895282F24712430F9F68B7F8860DCCF2D
:101A5000282F2471243101F78B7E8861DDCF382F48
:101A60003171313019F78E7F8860E0CF282F2171D6
:101A7000213121F78E7E8861E1CF82389105B9F15D
:101A8000B0F48133910509F47DC048F489329105A1
:101A900009F46DC08A32910509F47BC0089585333D
:101AA000910509F45FC08933910509F10895833EDA
:101AB0009105D9F138F4803E910529F1823E9105D6
:101AC00079F10895863E9105D9F1873E910509F493
:101AD0003EC0843E910541F52091F60121FF24C0CE
:101AE0008091F50184FD19C087EE90E00895209162
:101AF000F501237009F05AC02091F60123FF14C0AC
:101B000089E290E008952091F50120FD38C03091E0
:101B1000F60130FF09C024FF43C090E080E0089543
:101B20002091F50122FDF7CF08952091F50122FDC6
:101B30003AC03091F60130FD39C024FFF5CFEDCF2A
:101B40002091F50123FFF0CF24FDE7CFCDCF2091E9
:101B5000F50123FD2EC03091F60131FFEECF84EE6A
:101B600090E008952091F50125FFDECFC9CF2091A7
:101B7000F50125FD21C02091F60123FFD5CF89E392
:101B800090E0D2CF2091F50126FFCECF8AE290E0FF
:101B900008952091F50126FFC7CF81E390E00895D5
:101BA00083EE90E0089582EE90E0089580EE90E05C
:101BB000089586EE90E0089585E390E008951F93E0
:101BC000CF93DF930E943D0DEC01C11580E5D8074E
:101BD000F0F5C11580E4D80708F09CC0C03ED105DF
:101BE00020F5CD3CD10508F082C0C83AD10578F483
:101BF000C53AD10508F073C0C130D10519F120975D
:101C000009F1C430D105F0F4D0E0C0E01BC0C33C02
:101C1000D105D0F7C85AD0E0CC0FDD1FC55EDE4F2E
:101C20000990D881C02DD4640DC0C11580E2D807B9
:101C300008F0D1C0C11581E0D80708F05AC0C83EED
:101C4000D10510F7CE01DF91CF911F910895C036D5
:101C500082E5D80718F5C03482E5D80708F06BC0D4
:101C6000C03282E5D80708F05FC0C11582E5D80709
:101C700008F497C02C2F2695269580E2289F900186
:101C800011248C2F8370C1E0D0E002C0CC0FDD1F87
:101C90008A95E2F7C22BD32BDD68D4CFC03A82E518
:101CA000D80760F4C03882E5D80708F459C0CF716E
:101CB000D0E0DC2FCC27C46FD06AC4CFC03C82E513
:101CC000D80708F462C0C03E82E5D80708F09CCF70
:101CD000DC2FCC27CC27DF71C06FD06AB3CFC55AB9
:101CE000D0E0C85EDE4FC881D0E0D064ABCFD06515
:101CF000A9CF8D2F0E94FA0C182FCE0199270E9490
:101D00003D0DC12FD0E0DC2FCC27CC27DF71C82BB5
:101D1000D92B98CFCE0199270E943D0DCC27DF709B
:101D2000C82BD92BD06A8ECFCF71D0E0DC2FCC2737
:101D3000C16FD06A87CF2C2F26952695277080E219
:101D4000289F900111248C2F8370C1E0D0E002C045
:101D5000CC0FDD1F8A95E2F7C22BD32BDC6872CF44
:101D60002C2F26952695277080E2289F900111241C
:101D70008C2F8370C1E0D0E002C0CC0FDD1F8A95AC
:101D8000E2F7C22BD32BDA685DCF8C2F8F710E94C4
:101D9000FA0CC82FD0E0DC2FCC27CC27DF71D06223
:101DA00051CF8C2F8F710E94FA0C55E0D695C795B4
:101DB0005A95E1F7CF70D0E0DC2FCC27282F30E008
:101DC00084FF05C044E0220F331F4A95E1F7C22B80
:101DD000D32BD06937CF8D2F8F710E94FA0C182F1B
:101DE000CE0199270E943D0DC12FD0E0DC2FCC27DA
:101DF000CC27DF71C82BD92BD2CF80959091EA01E7
:101E000098239093EA0108958091F3029091BA0289
:101E1000981301C008958F5F8770FACFA82FA7701D
:101E200023E0969587952A95E1F7FC01EE0FFF1FB9
:101E3000E80FF91FE60FF71F50E040E080E0219126
:101E400030E00A2E02C0369527950A94E2F72170F9
:101E50003327042E01C0220F0A94EAF7822B4F5F2A
:101E60005F4F4330510559F70895292F943068F496
:101E7000853090F490E06FEC71E035E0239F800DA9
:101E8000911D11240E940E0F08952C5F223020F422
:101E90006CEC71E090E0F6CF80E00895262F27707B
:101EA00091E001C0990F2A95EAF723E076956795AE
:101EB0002A95E1F7FB01EE0FFF1FE60FF71FE40F76
:101EC000F51F50E040E0682F70E08191DF0111972D
:101ED0009B01042E02C0369527950A94E2F72170E3
:101EE00021952827292328272C934F5F5F4F4330C4
:101EF000510559F70895282F862F943070F4253016
:101F000058F4622F70E025E0929F600D711D11243E
:101F10004FEC51E00E944E0F08959C5F9230E0F725
:101F2000622F70E04CEC51E0F5CF80936E02089583
:101F300090916E0221E030E0F90101C0EE0F8A9528
:101F4000EAF7D90102C0AA0FBB1F6A95E2F7EA2B94
:101F500001C0220F4A95EAF7892F8E23E81305C0A6
:101F6000292B822F0E94950F089520952923F9CFC0
:101F700021E030E001C0220F8A95EAF72095809198
:101F80006E0282230E94950F08959091DF01809543
:101F900089238093DF01282F277069F4891759F06E
:101FA0009091F60192FF07C08695869586950E94CE
:101FB000B80F1092DF01089521E030E001C0220F38
:101FC0008A95EAF780916E02822B0E94950F089500
:101FD0008093EB010895662309F45DC08D3C41F4C4
:101FE0000E94C10C8195809315020E94780C08957F
:101FF0008E3C19F40E94C10CF6CF8F3C31F40E9444
:10200000C10C819580931402F0CF803D19F40E9499
:10201000C10CF8CF893D29F40E949F0C80931602D1
:10202000E4CF8A3D21F40E949F0C8195F7CF8B3D30
:1020300031F40E949F0C819580931702D6CF8C3D7E
:1020400019F40E949F0CF8CF9FE2980F983070F41B
:10205000815D990B21E030E001C0220F8A95EAF7FB
:1020600080911302822B80931302BFCF8D3D31F4F8
:1020700080910D02816080930D02B7CF8E3D21F4D7
:1020800080910D028260F7CF8F3D09F0AECF809135
:102090000D028460F0CF409114028D3C59F4809180
:1020A000150287FF0DC01092150241110BC010924E
:1020B0000B0208C08E3C81F48091150218169CF327
:1020C000442381F08091160290911702892B09F028
:1020D0008CCF10920C0289CF8F3C49F447FFF0CF90
:1020E00010921402809115028111ECCFE0CF803D57
:1020F00019F41416ACF3E4CF90911602893D29F43B
:102100001916F4F610921602DBCF8A3D19F497FFE8
:10211000D7CFF8CF909117028B3D29F497FFD0CFFE
:1021200010921702CDCF8C3D19F41916CCF3C8CFFD
:102130009FE2980F983090F4815D990B21E030E098
:10214000B90102C0660F771F8A95E2F7CB0180952F
:1021500090911302892380931302B2CF8D3D31F405
:1021600080910D028E7F80930D02AACF8E3D21F4C7
:1021700080910D028D7FF7CF8F3D09F0A1CF809127
:102180000D028B7FF0CF982F92959F7011F0892FC1
:1021900094E0282F2695269511F09E5F822F869534
:1021A00009F09F5F892F08950F931F93CF93DF93BB
:1021B0008B01EA019091B002943061F58093E900BF
:1021C0008FEF9091E800815095FD06C095ED9A95AE
:1021D000F1F700008111F5CF8091E80085FF1AC06A
:1021E0000E94EC02811111C08091E80085FD06C0BB
:1021F0008091E8008E778093E800F2CFF80181911A
:102200008F018093F100219779F78091E8008E7714
:102210008093E800DF91CF911F910F91089543E0E3
:1022200050E0BC0184E00E94D410089546E050E0E4
:10223000BC0184E00E94D4100895CF93DF93EC0199
:1022400048E050E0BC0181E00E94D41088E0FE012B
:10225000A6EAB2E001900D928A95E1F7DF91CF9165
:102260000895539A3BB1377F2BB128604FB7F8944C
:1022700084E792E0FC015191CF0168E02BB90000A6
:1022800000C057FF3BB9550F000000C000C000C0A0
:102290003BB900C06A9591F7F2E088399F0751F782
:1022A0004FBF8FE594E00197F1F700C0000008955B
:1022B000CF93DF93C1E6D1E060E0CE010E94D3343A
:1022C0002196C11584E0D807B9F7DF91CF91089521
:1022D0000F931F93CF93DF93142F022F863018F59F
:1022E000633008F594E0699FE00111249CE0899F28
:1022F000C00DD11D1124C75EDE4F82E090E0442363
:1023000011F090E080E0632F8C0F9D1F0E94D3346A
:1023100083E090E0112311F081E090E0602F8C0FBA
:102320009D1F0E94D334DF91CF911F910F9108958B
:102330001F93CF93DF93122F8630E0F46430D0F4F4
:102340004530C0F4C42FD0E0CC0FDD1F9AE0699F68
:10235000C00DD11D112498E2899FC00DD11D1124FB
:10236000632FCE0189960E94D334612FCE018A96C5
:102370000E94D334DF91CF911F910895B0E0A0E087
:10238000E4ECF1E10C94023489E2E82E84E0F82ECA
:1023900009E313E0C0E05801D0E015C0F401259135
:1023A00034914D2D6D2F8C2F0E94981182E0880E54
:1023B000911CD39485E0D812F1CF8AE0A80EB11C0D
:1023C000DF5FD43019F04501D12CE8CF6701D0E0B0
:1023D000F6012591349141E06D2F8C2F0E946811F8
:1023E000F60132962591349140E06D2F8C2F0E949A
:1023F000681184E0C80ED11CDF5FD33049F78CE050
:10240000E80EF11CCF5F085D1F4FC63009F0C3CF47
:10241000CDB7DEB7ECE00C941E34CF93C82F6FEF2E
:10242000811163E285E290E00E94D3346FEFC11125
:1024300067E086E290E00E94D3346FEFC11161E261
:1024400087E290E00E94D334CF91089580E00E940B
:102450000D1260E088E290E00E94D3340E94BE1129
:102460000E94581181E00E940D120895FF920F936F
:102470001F93CF93DF93F42E863068F5633058F5C1
:1024800024E0629F800111243CE0839F000D111D18
:102490001124075E1E4F82E090E0442311F090E08B
:1024A00080E0800F911F0E94B534C82FD0E0DC2F50
:1024B000CC2783E090E0FF2011F081E090E0800FD6
:1024C000911F0E94B5349E01282BC901CDB7DEB7FC
:1024D000E5E00C94253490E080E0F8CF0F931F9353
:1024E000CF93DF93863030F5643020F5453010F51A
:1024F000C42FD0E0CC0FDD1F2AE0629FC00DD11D9C
:10250000112438E2839FC00DD11D1124CE0189967C
:102510000E94B534082F10E0102F0027CE018A96B4
:102520000E94B5349801282BC901DF91CF911F91EA
:102530000F91089590E080E0F8CF743048F4653052
:1025400070F4863060F4462F672F0E946E12089553
:102550007D3F41F4633018F441E0863050F090E064
:1025600080E008957C3FD9F76330C8F78630B8F72C
:1025700040E00E9436120895CF92DF92FF920F93AF
:102580001F93CF93DF936C0100916E028091EB015A
:10259000082BC5E0D0E010E0FC2EC8010C2E02C0D4
:1025A000959587950A94E2F780FD0CC02197A0F7D6
:1025B000F12C8F2DDF91CF911F910F91FF90DF9024
:1025C000CF900895B6018C2F0E949D120E94DF0DBE
:1025D000019761F3EECFCF93DF93EC010E94BC1221
:1025E000BE010E949D120E94DF0DDF91CF910895E0
:1025F000FC0124812223C1F0808191810E94EB1291
:1026000092959F70963091F058F4925F9F7092303F
:1026100058F4803F19F030F4883E30F481E008959A
:102620009A5FF4CF843FD1F380E00895883EB0F301
:10263000813FD1F7F3CFA6E0B0E0E1E2F3E10C9403
:102640000B3449835A8349815A819923A1F022236B
:1026500091F0CA010E94BC12182F682F89819A81BB
:102660000E947B0F69817A81812F0E949D1226969C
:10267000E3E00C942734CA010E94350F182FF2CFE3
:1026800085E290E00E94B534833289F486E290E0DE
:102690000E94B534873059F487E290E00E94B53447
:1026A00091E0813209F090E0892F8170089580E0F7
:1026B000FCCF48E050E068E170E088EF92E00E94D3
:1026C000C334109273020895E8EFF2E085E380834B
:1026D0008091150190911601A09117018183928339
:1026E000A3838FE784838FEF85830E945913089516
:1026F000A3E0B0E0EEE7F3E10C94FC33C0904102BC
:10270000D0904202E0904302F09044028FB7F894D8
:1027100040909F025090A0026090A1027090A2028F
:102720008FBF530142018C189D08AE08BF080E945C
:102730004A04AB01BC0140934102509342026093B2
:1027400043027093440280916F0290917002A091B5
:102750007102B0917202880D991DAA1DBB1D809354
:102760006F0290937002A0937102B0937202109165
:102770001802E8E1F2E019831A822FEFC20ED21E8E
:10278000E11CF11CC418D508E608F7083A811313B8
:1027900023C0E981E093180210E081349747AB41F0
:1027A000B10540F48091F802182F137019F0182F1A
:1027B00016951695809110018130E1F1882319F169
:1027C000823011F40C942B1D833011F40C94361DBF
:1027D0002396E2E10C941834218D328D2901712C5D
:1027E000612CC414D504E604F70440F43981315057
:1027F00039832A812F5F2A833296C8CF280D391D4D
:10280000328F218FF6CF109212014093F402509331
:10281000F5026093F6027093F70289E2E8E1F2E0D4
:10282000A0E0B3E001900D928A95E1F781E08093FA
:102830001001CECF80910F01181323C09091F802A0
:10284000937020910E0130E081E09217130609F495
:1028500080E08170809314018091FD0290911301BA
:10286000981739F08093130140E060E080E00E9407
:102870006007103360F4E12FF0E0E45AFA4C0C9456
:10288000EF3381E0E6CF80911401811102C01A82FA
:102890002AC040E060E080E00E946007F8CF8091AD
:1028A0001201282F220F280F2983022F0D5FF02EEF
:1028B0000D3010F06CE0F62E6091F9027091FA0282
:1028C0008091FB020E94EB08E62ED72EC82E59817C
:1028D000452F50E05B834A839A819F15B8F0A1E0B1
:1028E000AA830C30A0F6809112018F5F80931201B1
:1028F000BA81B1116DCF82E08093100180911401F3
:10290000811166CF111164CF83E091CFEA81FB8101
:10291000E957FE4F84A590911301892339F02C2D9E
:102920004E2D6D2D8A819B810E9463078A819B8138
:1029300001969B838A83D0CF80911201B82FBB0F61
:10294000B80FB9830B2F0D5FF02E0D3010F05CE047
:10295000F52ED090FA02E090FB02E091F902EA83B2
:102960006E2F7D2D8E2D0E94EB08C62EB72EA82E21
:102970006091FC02FA816F0F7D2D8E2D0E94EB0875
:10298000E62ED72E982E3981232F30E03B832A83E1
:102990005A815F1518F081E08A83A3CFEA81FB8119
:1029A000E957FE4F94A580911301892361F0292DE9
:1029B0004E2D6D2D90FD03C02A2D4C2D6B2D8A813F
:1029C0009B810E9463074A815B814F5F5F4F5B83FE
:1029D0004A83DECF80911201982F990F980F998327
:1029E000092F0D5FE02E0D3010F04CE0E42ED0905A
:1029F000FA02C090FB022091FC0230E4F32E3F2D3E
:102A0000329F312D1124F32E5981452F50E05B83E5
:102A10004A839A819E1508F062CFEA81FB81E957CB
:102A2000FE4F84A5909113018923C9F0EA81FB81AF
:102A3000EE0FFF1FE957FE4F858982958F706091D9
:102A4000F9028F9D600D11247D2D8C2D0E94EB08C5
:102A5000462F282F672F8A819B810E9463078A81D6
:102A60009B8101969B838A83D4CF80911201B82FDA
:102A7000BB0FB80FB9830B2F0D5FE02E0D3010F098
:102A80009CE0E92ED090FA02C090FB022091FC025B
:102A900080E4F82E3F2D329F312D1124F32E5981E1
:102AA000452F50E05B834A839A819E1508F017CF2B
:102AB000EA81FB81E957FE4F84A590911301892398
:102AC000E9F0EA81FB81EE0FFF1FE957FE4F6489B1
:102AD000F69EB0011124B5E075956795BA95E1F7BA
:102AE0008091F902680F7D2D8C2D0E94EB08462FF6
:102AF000282F672F8A819B810E9463078A819B818F
:102B000001969B838A83D0CF80911201B82FBB0F8F
:102B1000B80FB9830B2F0D5FF02E0D3010F0ECE0E5
:102B2000FE2EE090F902E091FA02EA83D090FB02D7
:102B30006091FC026695669566958091F40290918D
:102B4000F5020E94E1080E943208805887FD8195B5
:102B5000880F282F3D2D239F212D1124822F6E2D8C
:102B60007A810E94EB08E62ED72EC82E5981452F78
:102B700050E05B834A839A819F1508F0B0CEEA81CA
:102B8000FB81E957FE4F84A590911301892339F009
:102B90002C2D4E2D6D2D8A819B810E9463078A8189
:102BA0009B8101969B838A83E6CF87E397E00E940F
:102BB000F50A8A8398CE8DE097E0F9CF84E198E01A
:102BC0000E94FF0BF6CF85EF97E0FACF8AED97E0F2
:102BD0000E94930BEECF8EEB97E0FACF8BE097E05D
:102BE000E6CF82E097E0E3CF89EF96E0E0CF80EE9A
:102BF00096E0DDCF82ED96E0EBCF89EB98E0E0CF79
:102C00008DEA97E0DDCF89E997E0E2CF85EA96E0AB
:102C10000E943E0BCECF8EE696E0FACF8091120155
:102C2000B82FBB0FB80FB9830B2F0D5F8091140124
:102C3000811121C06091FC0220E1620F08F46FEF66
:102C40008091F4029091F5020E94E1086AE070E040
:102C50000E94C733892B61F40E947408ECE08E9FB8
:102C6000C001112460911301892F90E00E947F0917
:102C700091E09A8336CE802F0D3008F08CE03981B8
:102C8000232F30E03B832A83E82EF12C8A819B811D
:102C90008E159F056CF7609113018A819B810E94BC
:102CA0007F094A815B814F5F5F4F5B834A83EECF31
:102CB000A0911401AA83A11120C06091FC0220E11F
:102CC000620F08F46FEF8091F4029091F5020E9478
:102CD000E10865E070E00E94C733892B09F0D7CD89
:102CE0000E947408BCE08B9FC00111246091130105
:102CF000892F90E00E94540CF6CD80911201E82FAC
:102D0000EE0FE80FE9830E2F0D5F802F0D3008F0D6
:102D10008CE03981232F30E03B832A83E82EF12C8D
:102D20008A819B818E159F050CF0A2CF60911301C3
:102D30008A819B810E94540C4A815B814F5F5F4F67
:102D40005B834A83EDCF80911201A82FAA0FA80FB1
:102D5000A9830A2F0D5FF02E0D3010F07CE0F72EC6
:102D6000D090FA02E090FB02B091F902BA83609130
:102D7000FC026695669566958091F4029091F50245
:102D80000E94E1080E943208805887FD8195880FD3
:102D9000682F2CE0629F612D1124EA816E0F7D2D3A
:102DA0008E2D0E94EB08E62ED72EC82E3981232FB8
:102DB00030E03B832A835A815F1508F0ECCDEA812D
:102DC000FB81E957FE4F84A590911301892339F0C7
:102DD0002C2D4E2D6D2D8A819B810E9463074A8187
:102DE0005B814F5F5F4F5B834A83E5CF81E598E06E
:102DF000DECE8DE596E0DBCE809112018F5F082F4D
:102E0000000F080F4091F4025091F5026091F60214
:102E10007091F7028091450290914602A09147027D
:102E2000B091480284179507A607B70708F055C068
:102E30000E947408ECE08E9FD00111242B2F3327C1
:102E40003B832A83F901E957FE4F84A59091130132
:102E5000892309F442C00E94740820E040E060E049
:102E600081FD13C00E947408F82E0E94740830E897
:102E7000839FC00111247FE7790F6F2D8091FB02A2
:102E80000E94EB08462F282F672F8A819B810E9482
:102E900063072091FC0230E1230F08F42FEF60E17B
:102EA000822F90E00E94E108BC0184EF91E00E9433
:102EB000C7338091F4029091F502A091F602B0918F
:102EC000F702860F971FA11DB11D809345029093B5
:102ED0004602A0934702B093480241E04A8301CDE5
:102EE00080911401882329F040E060E080E00E9496
:102EF0006007809112018F5FB82EBB0CB80E409115
:102F0000F4025091F5026091F6027091F7028091FF
:102F1000510290915202A0915302B0915402841731
:102F20009507A607B70708F099C06091F90270915C
:102F3000FA028091FB020E94EB08062FA72E982E22
:102F400049E4E42E42E0F42E87E891E09B838A83F3
:102F50005BE9C52E51E0D52EAA81BB818C9190E012
:102F6000F701208121110CC020E040E060E00E94C8
:102F70006307EA81FB81848120E040E060E00CC0CF
:102F8000292D402F6A2D0E946307AA81BB811496C8
:102F90008C91292D402F6A2D90E00E946307D70164
:102FA00011962C9111972C93EA81FB81818190E0FD
:102FB00021110CC020E040E060E00E946307EA813C
:102FC000FB81838120E040E060E00CC0292D402F90
:102FD0006A2D0E946307AA81BB8113968C91292DCB
:102FE000402F6A2D90E00E9463070E94740883704E
:102FF00091E009F090E0D70111969C93B2E0EB0EBE
:10300000F11CEA81FB813596FB83EA83CE16DF064D
:1030100009F0A2CF2091FC0230E1230F08F42FEF3A
:1030200060E1822F90E00E94E108BC0188EB9BE008
:103030000E94C7338091F4029091F502A091F602AC
:10304000B091F702860F971FA11DB11D8093510209
:1030500090935202A0935302B0935402F1E0FA838A
:103060002BE02B1508F03FCC12CC80911201C82E1A
:10307000CC0CC80E33E0A32EAC0C8A2C3CE03A15E5
:1030800010F42CE0822E80911401882361F040E03E
:1030900060E080E00E946007EAE5F2E084E1DF01A1
:1030A0001D928A95E9F780911201811115C08091D6
:1030B0005602909157020E943B0421E0893191050C
:1030C00008F420E020935502499730F00E945604FE
:1030D0009093570280935602B12C912CD12CB5E0DD
:1030E0006B2E85E5582E9AEA792E4424439405C028
:1030F000F2E0F91508F45BC0D12C2D2D30E06B9C6B
:10310000F0011124FB83EA83E957FE4FE20FF31F1E
:10311000E080EC1408F443C0E81408F040C0939435
:10312000F12CF701E957FE4F84A5909113018923F3
:1031300009F435C04A815B81465A5D4F420F531FE7
:103140005B834A83DA010C91302F252D321B08F462
:1031500030E07091FA02272D200F08F42FEF4091F4
:10316000FB02822F880F820F8E5F582F549F512DA4
:103170001124852F672D631B0E94EB08462F282FF3
:10318000672FC7010E94630780915502882339F099
:10319000242D021B08F400E0AA81BB810C93D39478
:1031A000B5E0DB12AACFB394E4E0BE12A1CF21E0D8
:1031B0002A833BE03A1508F096CB69CB0091FB02DD
:1031C00083E0089FA0011124569547955695479591
:1031D0005B834A835A80A02EB12C8FEF90E0B5011B
:1031E0000E94DB33762E80911401882371F040E039
:1031F00060E080E00E946007EAE5F2E084E1DF0140
:103200001D928A95E9F710925902809158028F5FBA
:1032100080935802F12CE12CEA81FB81AE1ABF0A9F
:103220006701612CF701E65AFD4F4F018091590269
:10323000862909F047C00E947F34853595400CF0FF
:1032400041C0D4010C93F601E957FE4FE081EF3FF6
:10325000E1F0D601A65ABD4F2C91F0E0521608F0CD
:1032600042C030E04A815B81241B350B249FC001A2
:10327000259F900D349F900D1124B5010E94C733F6
:10328000262F402FCF010E946307639455E0C50E9F
:10329000D11C84E06812CACF9FEFE91AF90AA5E0B1
:1032A000EA16F10409F0BCCF80915802781202C0EE
:1032B00010925802809159028F5F8D31F8F48093FB
:1032C0005902E5CAF601E65AFD4F8081882309F4C8
:1032D000BACF801708F0B7CF909158027912B3CFC8
:1032E00081508083B0CF029FC00111246A817B810D
:1032F0000E94C733462F20E060E0C4CF10925902ED
:1033000024E632E083E04FE552E09FEF900FAAE51C
:10331000B2E0F901833041F41F966C911F970613B8
:1033200003C01F969C931F976081601710F09083D5
:103330000583119631964A175B0761F78150255036
:1033400031098111E4CFA3CA86E596E00E94830A81
:1033500030CC80E596E0FACF8091000321E0382F51
:10336000321B08F430E0832F67E376E00E94BA094D
:1033700020CC67E376E080E0F9CF8091000321E084
:10338000482F421B08F440E0842F6CEF75E0EECF2D
:103390006CEF75E0F0CF8091000321E0582F521BB5
:1033A00008F450E0852F6AEC75E0E0CF6AEC75E038
:1033B000E2CF8091000321E0382F321B08F430E087
:1033C000832F62EB75E0D2CF62EB75E0D4CF8091B2
:1033D000000321E0482F421B08F440E0842F6CE9F1
:1033E00075E0C4CF6CE975E0C6CF80911201582F0B
:1033F000550F580F5983F3E0FF2EF50EEF2C8CE09C
:103400008F1510F4ECE0EE2EB981AB2FB0E0BB834A
:10341000AA83FA81F93088F02A813B8133273B83E4
:103420002A8378E2D72E5A815E1528F181E08A83BB
:103430009BE09F1508F057CA2ACAEA81FB81E95729
:10344000FE4F84A590911301892379F06091F902D0
:103450007091FA028091FB020E94EB08462F282F00
:10346000672F8A819B810E946307EA81FB813196E5
:10347000FB83EA83CECFEA81FB81E957FE4F84A527
:10348000909113018923D9F0B090FA02C090FB0209
:103490000091F90280916E020E94C3106091FC02BB
:1034A0008D9D000D1124600F7B2D8C2D0E94EB084B
:1034B000462F282F672F8A819B810E9463074A81AC
:1034C0005B814F5F5F4F5B834A83ADCF8091120179
:1034D000A82FAA0FA80FA9830A2F0D5FD02E0D3099
:1034E00010F06CE0D62E2091FC0231E0230F08F49E
:1034F0002FEF30E050E040E06FEF7FEF80E090E0B2
:103500000E94F7347901F981EF2FF0E0FB83EA8321
:10351000CC24C3944A81493060F08A819B819927E9
:103520009B838A83BA81BD1508F44CC0E1E0EA832D
:10353000D8C9EA81FB81E957FE4F84A59091130118
:10354000892331F1209100032150022E000C330B0E
:1035500027FF25C0C7016091FC022C2D620F08F4E3
:103560006FEF0E94E1086091F9027091FA022091D8
:10357000FB028095382F329F312D1124832F0E941A
:10358000EB08462F282F672F8A819B810E946307B3
:103590004A815B814F5F5F4F5B834A83BBCFF901F9
:1035A000E050FD4F818948130AC0F901EE0FFF1F5B
:1035B000E050FD4F818D928D8E159F0560F2215058
:1035C0003109C6CFEA81FB81E957FE4F84A590916E
:1035D0001301892379F06091F9027091FA028091C8
:1035E000FB020E94EB08462F282F672F8A819B81C0
:1035F0000E946307AA81BB811196BB83AA8392CFE5
:1036000080911201F82FFF0FF80FF9830F2F0D5F34
:10361000F02E0D3010F09CE0F92E2091FC0231E0EC
:10362000230F08F42FEF30E050E040E06FEF7FEF22
:1036300080E090E00E94F73469013981232F30E067
:103640003B832A83EE24E3944A81493048F0CA80C0
:10365000DB80DD24CF1408F44BC0F1E0FA8341C9CC
:10366000EA81FB81E957FE4F84A5909113018923DC
:1036700031F1209100032150022E000C330B27FF63
:1036800024C0C6016091FC024E2D640F08F46FEF58
:103690000E94E1086091F9027091FA022091FB0208
:1036A0008095582F529F512D1124852F0E94EB0891
:1036B000462F282F672F8A819B810E9463078A816A
:1036C0009B8101969B838A83BFCFF901E050FD4F18
:1036D000818984130AC0F901EE0FFF1FE050FD4FEE
:1036E000818D928D8C159D0568F221503109C7CFCF
:1036F000F601E957FE4F84A5909113018923E9F063
:10370000B090FA02E090FB029091F90299838091C7
:103710006E020E94C3106091FC02A981B8E28B9FE7
:10372000A00D11246A0F7B2D8E2D0E94EB08462FD1
:10373000282F672FC6010E946307EFEFCE1ADE0A1B
:1037400089CF80911201282F220F280F2A832D5F05
:103750002983622E2D3010F0BCE06B2E5A81452F4C
:1037600050E05B834A839A819930F8F070900003AF
:10377000AA81BB81BB27BB83AA83CD01880F991F78
:10378000FC01E957FE4F7F01F0E0AF2EF3E0BF2EC2
:10379000A5E05A2E8A81861530F191E09A83A9819D
:1037A000AC3008F4A0C80C944714EA81FB81E957B7
:1037B000FE4F84A590911301892379F06091F9025D
:1037C0007091FA028091FB020E94EB08462F282F8D
:1037D000672F8A819B810E9463078A819B81019662
:1037E0009B838A83C0CFEA81FB81E957FE4F84A582
:1037F00090911301892311F13090F9024090FA025F
:1038000069E1C62E63E0D62E70E0872E73E0972E16
:1038100000E0882D8A198715D8F02091FB02029FBD
:10382000012D1124632D742D802F0E94EB08462F4B
:10383000282F672F8A819B810E9463074A815B81C1
:103840004F5F5F4F5B834A8352E0E50EF11CA2CFCE
:10385000D70154964C915497F4018181481B550B24
:1038600055962C918185281B330B449FB001459FB1
:10387000700D700D1124229FC001239F900D900D9B
:103880001124860F971F0E948908282E6091FC0240
:1038900021E0620F08F46FEFD6018D919D916D01CB
:1038A0000E94E108259C800D911D11248F3F9105F8
:1038B00019F010F08FEF90E08095282F020F08F498
:1038C0000FEF3FEF831A930AA4CF80911201B82F14
:1038D000BB0FB80FBA83BD5FB9836B2EBD3010F03C
:1038E0005CE0652EEA81EE2EF12C58E05E1508F0C2
:1038F0004CC070900003C70199279B838A83880F6F
:10390000991FDC01A957BE4F7D0130E0A32E33E0A3
:10391000B32E45E0542E8A81861508F03ECFEA8109
:10392000FB81E957FE4F84A590911301892319F17A
:103930003090F9024090FA0289E1C82E83E0D82E37
:1039400090E0892E93E0992E00E0882D8A19871542
:1039500008F444C02091FB02029F012D1124632D25
:10396000742D802F0E94EB08462F282F672F8A8105
:103970009B810E9463074A815B814F5F5F4F5B833E
:103980004A8352E0E50EF11CC6CFF701E957FE4F1E
:1039900084A5909113018923E9F0D090FA02009157
:1039A000FB02F091F902FA8380916E020E94C3102B
:1039B0006091FC022A8138E2839F200D1124620F5E
:1039C0007D2D802F0E94EB08462F282F672FC701DF
:1039D0000E9463074FEFE41AF40A87CFF701448986
:1039E000D40111968C911197481B550B2589199676
:1039F0008C91281B330B449FB001459F700D700DB7
:103A00001124229FC001239F900D900D1124860F39
:103A1000971F0E948908282E6091FC0221E0620F06
:103A200008F46FEFD6018D919D916D010E94E10820
:103A3000259C800D911D11248F3F910519F010F0E8
:103A40008FEF90E08095282F020F08F40FEF3FEFE3
:103A5000831A930A7ACF10930F018091F802837032
:103A600080930E010E9431110C9484148091730292
:103A700081110E9459134091F4025091F502609116
:103A8000F6027091F7022FB7F89480919F029091FF
:103A9000A002A091A102B091A2022FBF841B950B9E
:103AA000A60BB70B4097A105B10510F40C94E813D1
:103AB000109210010C94E8138091EA019091E901B1
:103AC000892B8093C2019091E801992391F0892B71
:103AD0008093C20120E084EC91E0FC013191CF01A0
:103AE00031112F5FF1E08A3C9F07B9F72111109245
:103AF000E80148E050E060EE71E082EC91E00E9465
:103B00008F34892BA9F088E0E2ECF1E0A0EEB1E07F
:103B100001900D928A95E1F7E0919A02F0919B0253
:103B2000309731F00280F381E02D82EC91E009952D
:103B30000895CF931092EA01C6E0E4ECF1E0DF01D2
:103B40008C2F1D928A95E9F790E080E00E94A104F5
:103B500090E080E00E947C041092E9010E945C1DCC
:103B6000E2E1F2E0DF011D92CA95E9F710920B0243
:103B700010920C0210920D020E94780CCF910895C1
:103B8000AAE2B0E0E6ECFDE10C940B3482EB92E0AB
:103B90002091F100DC012D93CD01B2E08A3B9B071F
:103BA000B9F78091B302833009F472C0B8F4813060
:103BB00009F449C0823009F4B3C08091E80083FF62
:103BC0008BC28091B2029091B3029A3008F084C205
:103BD000E92FF0E0E457FA4C0C94EF338A3009F403
:103BE0008EC08B3009F471C0893039F78091B202F0
:103BF000813219F78091B6029091B702009711F0C7
:103C00000297D9F68091E800877F8093E800809141
:103C1000E80082FF38C09091F3008091F200029793
:103C200031F48091F100813011F0863021F48091DF
:103C3000F1008093A5028091E8008B778093E800E3
:103C40000E941D03BACF8091B202813A09F0B5CF2C
:103C50008091E800877F8093E8008091B602909180
:103C6000B702892B61F468E086EA92E070E00E9476
:103C7000C9038091E8008B778093E8009ECF60E0D5
:103C800090E080E0F3CF8091B0028111C0CF95CF5A
:103C90008091B202813A09F090CF8091B602909162
:103CA000B702892B09F089CF8091E800877F809344
:103CB000E8008091E80080FFFCCF809111018093A3
:103CC000F1008091E8008E77B9CF8091B202813205
:103CD00009F073CF8091B6029091B702892B09F059
:103CE0006CCF8091E800877F8093E8000E941D03DD
:103CF0008091B402809311010E94991D5ECF809142
:103D0000B202813209F059CF8091E800877F809319
:103D1000E8000E941D038091B5028093A4024DCF5C
:103D20008091B202813A09F048CF8091E800877F04
:103D30008093E8008091E80080FFFCCF8091A4028E
:103D4000BECF803899F0823809F0C6C18091B602A2
:103D50008F70873008F0C0C18093E9008091EB003C
:103D600085FB882780F91092E90006C08091AE0299
:103D70009091AF02911182609091E800977F9093AB
:103D8000E8008093F1001092F1008091E8008E77B6
:103D90009FC1882309F48DC1823009F09DC18091B3
:103DA000B402811190C18091B6028F702FEF280F5D
:103DB000263008F091C18093E9002091EB0020FFAC
:103DC00082C1933031F48091EB0080628093EB00EC
:103DD0007AC19091EB0090619093EB0021E030E08C
:103DE00001C0220F8A95EAF72093EA001092EA00B8
:103DF0008091EB008860EACF81116EC11091B4020E
:103E00001F778091E3008078812B8093E30080917D
:103E1000E800877F8093E8000E941D038091E800FE
:103E200080FFFCCF8091E30080688093E30082E014
:103E3000111183E08093B0024FC18058823008F0A6
:103E40004BC12091B4023091B5022C3DE3E03E0716
:103E5000A1F583E08A838AE289834FB7F894DE0173
:103E6000139620E03EE051E2E32FF0E0509357003C
:103E7000E49120FF03C0E295EF703F5FEF708E2F5B
:103E800090E0EA30C0F0C7968D939D932F5F243168
:103E900059F74FBF8091E800877F8093E8006AE27E
:103EA00070E0CE0101960E94C9038091E8008B77F3
:103EB0008093E80011C1C096E7CF8091B60290913F
:103EC000B702432F55274330510509F44AC078F50E
:103ED0004130510509F47AC08BE590E0E1E7F4E068
:103EE0004230510509F0F8C02091E800277F209367
:103EF000E8002091B8023091B9028217930708F4C4
:103F00009C0140E02115310509F065C0411163C0F5
:103F10008091E80082FDC9CF8091B002882329F208
:103F2000853019F28091E80083FFF2CFBECF413295
:103F3000510509F43CC04232510509F0CDC083302F
:103F4000910508F0C9C0FC01EE0FFF1FE558FE4FB8
:103F50000190F081E02D88589E4FDC018C9190E01B
:103F60001AC0332721303105D1F02115310561F018
:103F70002230310509F0B0C0EEEDF4E0E4918E2F6F
:103F800090E0EEEDF4E007C0EAE1F5E0E4918E2F79
:103F900090E0EAE1F5E0009709F49EC0A5CFE8E0E3
:103FA000F5E0E4918E2F90E0E8E0F5E0F4CF833087
:103FB000910508F091C0880F991FFC01EF57FE4F43
:103FC0000190F081E02D89E090E08ECF82E190E0D9
:103FD000ECECF4E089CF8091B002882309F465CF3E
:103FE000853009F462CF8091E80083FD5ECF809137
:103FF000E80082FD8DCF8091E80080FF83CF909113
:10400000F3008091F2002115310519F088309105F7
:1040100050F041E0089709F040E08091E8008E7789
:104020008093E8006FCF44914093F1003196215086
:1040300031090196E8CF803809F04EC08091E80040
:10404000877F8093E8008091B1028093F1009DCE3C
:10405000811142C01091B4021230F0F58091E80055
:10406000877F8093E8001093B1020E941D03112303
:1040700011F084E005C08091E30087FDFACF81E074
:104080008093B00242E061EC81E00E943C0342E296
:1040900061EC84E00E943C0342E261EC82E00E9419
:1040A0003C0342E260EC83E00E943C038091B0025A
:1040B00013C08091B402813079F481E0933009F02B
:1040C00080E08093AF021092E9008091E800877F42
:1040D0008093E8000E941D038091E80083FF0AC0DE
:1040E0008091E800877F8093E8008091EB008062F8
:1040F0008093EB00AA96E3E00C9427340E94991D6C
:104100002FEF84E39CE0215080409040E1F700C015
:10411000000088E19AE00FB6F894A89580936000BB
:104120000FBE90936000FFCF882321F00E94FD0E08
:104130000E945C1D0895882339F09091EA01982B24
:104140009093EA010E945C1D08958823D1F19CEFB1
:10415000980F913A78F4E4ECF1E09191891303C05F
:10416000DF0111971C9291E0EA3CF907B1F70E9438
:104170005C1D089590E2980F983050F4877091E09C
:1041800001C0990F8A95EAF7892F0E94FD0EEFCFA3
:104190009BE5980F933028F490E080E00E94A10402
:1041A000089598E5980F9B3128F490E080E00E94F4
:1041B0007C04089593E3980F933118F460E00E9413
:1041C000EB0F0895CF93C82F8823B1F08CEF8C0F9D
:1041D000813A00F5E4ECF1E08AEC91E0DF012D9109
:1041E000C21761F08A179B07D1F76C2F82EC91E020
:1041F0000E9462040E945C1DCF9108952191C21318
:1042000003C0DF0111971C928E179F07B9F70E9418
:104210005C1DEBCF80E28C0F883068F4C77021E022
:1042200030E001C0220FCA95EAF78091EA01822BA3
:104230008093EA01DFCFEBE5EC0FE33040F4F0E0F0
:10424000E85EFE4F808190E00E94A104D5CFE8E5B2
:10425000EC0FEB3150F4F0E0EE0FFF1FE55EFE4F88
:10426000808191810E947C04C7CF83E38C0F8331CE
:1042700018F661E08C2F0E94EB0FBECF1F93CF93F7
:10428000DF93182FD0E0C0E0893311F4C0E5D0E00F
:10429000812F0E94E220209739F4812F0E94A520CF
:1042A000DF91CF911F9108958FE99FE00197F1F77A
:1042B00000C000002197EFCF0F931F93CF93DF93A0
:1042C000C62FD42F022FFC0185818823A9F060938B
:1042D0002B030E94560490932A0380932903C770EE
:1042E00081E001C0880FCA95EAF70E949B20DF9108
:1042F000CF911F910F91089580912B03681332C0C5
:104300008091290390912A030E943B04883C9105E7
:1043100048F510E21D0FCD17B9F080E28C0F883000
:1043200040F4C77081E001C0880FCA95EAF70E9487
:104330009420183048F481E09D2F977001C0880FB9
:104340009A95EAF70E949B20802F0E943E21183008
:1043500070F6D77081E001C0880FDA95EAF70E9405
:104360009420C5CFC77081E001C0880FCA95EAF7D5
:10437000F6CF6F927F929F92AF92BF92CF92DF92D1
:10438000EF92FF920F931F93CF93DF9300D000D053
:10439000CDB7DEB719821A821B821C8201E511E0BB
:1043A00096E5E92E91E0F92E99249394CC24C394B8
:1043B000D12C3AE5A32E31E0B32EF80181918F0183
:1043C0008F3F09F448C0F894E82FE295EF70F0E0D1
:1043D00021A18F70A60102C0440F551F8A95E2F7F4
:1043E000CA01922F982B91A392A18095892382A331
:1043F000789400C086E5682E81E0782EDE01119663
:10440000692D6095F30191913F018D919D0121509E
:1044100031099F3F09F46AC0492F42954F7050E01F
:10442000FA0140A150E09F7002C0559547959A95BA
:10443000E2F740FD5BC08929F9018083A614B70427
:1044400009F7F801319780818F3F11F00E94E30C4A
:10445000F0EAFA95F1F7990CE016F10609F0ADCF04
:1044600044E050E0BE016F5F7F4F81EF91E00E941A
:104470008F34892BE9F189819A81AB81BC8180934A
:10448000F1019093F201A093F301B093F40181E064
:104490008093F0010E9456049093EF018093EE0107
:1044A0008091EE019091EF010E943B04059720F16D
:1044B00044E050E061EF71E087E092E00E948F34C9
:1044C000892B69F18091F1019091F201A091F301A2
:1044D000B091F4018093070290930802A09309021F
:1044E000B0930A0281E01092F00107C08623A4CFA6
:1044F0008091F0018111D4CF80E00F900F900F9048
:104500000F90DF91CF911F910F91FF90EF90DF906F
:10451000CF90BF90AF909F907F906F90089580E074
:10452000E2CF9091F60192FB222720F9281779F02B
:1045300080FB92F99093F6016091F5017091F6017C
:1045400084E090E00E94F13482E00E94C50F08955B
:1045500090E080E00E94BD34863E9E4F19F40E9498
:104560004013089580E00895A8E0B0E0EAEBF2E29D
:104570000C94FE338C01DC0114968C9114978823E3
:1045800009F4B8C021E04C9111965C9111971296F4
:104590006C91129713967C91139715969C910E949B
:1045A0001B137C01F8018581882309F43CC1C701F4
:1045B00097578038910508F078C5FFE0FE1508F49C
:1045C00089C08FEF93E00E94B534811183C061E60A
:1045D000A62EBB24B394E11047C0FE01339686E0BB
:1045E000DF011D928A95E9F75AE0452E7501BFEF6C
:1045F000EB1AFB0AC5010E94B53489831A8288230D
:1046000009F468C0813009F079C06501E2E0CE0E9E
:10461000D11CC7010E94B5348A83882309F45AC08B
:104620009FEF980F933070F5F3E0AF0EB11CC60109
:104630000E94B5348B83882309F44CC01C82DE01B0
:1046400011967D01F7012081222381F2213009F0AA
:1046500095C091818281913009F052C0F2E0EF0E55
:10466000F11C0E943E2153C0A11424E0B20691F136
:10467000C5010E94B534811101C0EA943FEFA31A2D
:10468000B30AA9CF56018430D1F642E0E42EF12CD2
:1046900056012FEFA21AB20AC6010E94B534E1E01A
:1046A000F0E0EC0FFD1FEE0DFF1D8083882391F0DD
:1046B0008C3741F4E2E0F0E0EC0FFD1FEE0DFF1D42
:1046C0001082BDCF3FEFE31AF30A650187E0E816D9
:1046D000F104F1F68091DF01877061F0D801159641
:1046E0008C91882339F08091F60182FF03C082E02B
:1046F0000E94C50F2896E0E10C941A3457019FCF11
:10470000923049F422E0E20EF11C0E94E220EFEF29
:10471000EE1AFE0A97CF933031F432E0E30EF11C2B
:104720000E94A520F4CF943021F08FEFE81AF80A08
:10473000EECF92E0E90EF11C30E020E0B7016F5FB0
:104740007F4FD70111964C918053990B8A30910578
:1047500050F021503109D8F2EFE9FFE03197F1F73D
:1047600000C00000F6CF429EF001439EF00D1124E0
:104770009C012E0F3F1F842F7B01E0CFE22FF0E042
:10478000E754FE4F5490822F86958695869590E04B
:10479000FC01E755FE4F64902770712C022E02C079
:1047A000759467940A94E2F731E063227724FC0160
:1047B000E756FE4F8490912C022E02C09594879468
:1047C0000A94E2F7A1E08A229924FC01E757FE4F00
:1047D000C490D12C02C0D594C7942A95E2F7B1E0D9
:1047E000CB22DD246114710419F081EE0E94E220D5
:1047F0008114910419F086EE0E94E220852D0E941A
:104800003E218114910419F086EE0E94A5206114C6
:10481000710419F081EE0E94A520C114D10409F49D
:1048200076CF8CE21ECFF701E851FC47E730F10567
:1048300008F027C4EA56FA4C0C94EF3326E241EE16
:1048400061EEC8010E945C2145CF27E245EE65EE8E
:10485000F8CF26E241EE60EEF4CF27E245EE64EEBB
:10486000F0CF26E241EE62EEECCF27E245EE66EEB7
:10487000E8CF28E241E0EBCF8091F50181608093A1
:10488000F50195C08091F60188608093F6018FC094
:104890008091F5018260F3CF8091F5018460EFCFC4
:1048A0008091F5018860EBCF8091F6018160EDCFBA
:1048B0008091F6018260E9CF8091F5018061DFCFC0
:1048C0008091F5018062DBCF8091F5018064D7CFC4
:1048D0000E94991D8091F5018068D1CF8091F501EA
:1048E0008C60CDCF8091F6018360CFCF8091F501B0
:1048F0008E7FC5CF8091F601877FC7CF8091F5016C
:104900008D7FBDCF8091F5018B7FB9CF8091F5016F
:10491000877FB5CF8091F6018E7FB7CF8091F6016A
:104920008D7FB3CF8091F5018F7EA9CF8091F50166
:104930008F7DA5CF8091F5018F7BA1CF0E94991D1E
:104940008091F5018F779BCF8091F501837F97CF81
:104950008091F6018C7F99CF8091F50182FB992798
:1049600090F921E0922790FB82F990FB83F987CFA1
:104970008091F601982F909591708E7F892B90FBF6
:1049800081F983CF9091F501892F8F7B96FF806409
:1049900076CF0E94991D9091F501892F97FB87F999
:1049A00080586DCF61E08EE090E00E94D33460913A
:1049B000F5017091F60184E090E00E94F1340E94CC
:1049C000991D88CE60E0EFCF9091F501892F8F7E01
:1049D00094FF806154CF9091F501892F8E7F90FFD5
:1049E00081604DCF9091F601892F877F93FF88607A
:1049F0004CCF8091CA0181110FC089E2E4ECF1E053
:104A00002AEC31E09191891303C0DF0111971C92C8
:104A10002E173F07B9F732C385E3F0CFF7E7EF165C
:104A2000FCE7FF0609F0F9C281E00E94DC0F43E0D9
:104A300062E081E00E94980F4DCE8091F80291E0F3
:104A400089278093F802109210018091730281608F
:104A5000809373023FCE45E855E060E975E00E941F
:104A6000D30438CE40E955E065E875E0F8CF46E577
:104A700055E061E675E0F3CF41E655E066E575E0A7
:104A8000EECF4AE355E068E475E0E9CF48E455E04D
:104A90006AE375E0E4CF4EE155E06CE275E0DFCF0C
:104AA0004CE255E06EE175E0DACF4FEE54E06DEF89
:104AB00074E0D5CF4DEF54E06FEE74E0D0CF61E0FD
:104AC00081E00E946C0506CE61E085E0FACF61E0EE
:104AD0008DE0F7CF61E082E1F4CF27E7E2162CE723
:104AE000F20609F457C038E7E3163CE7F30609F489
:104AF00055C0F8018581E080F180882309F482C0E7
:104B0000C7010E94BC12D82E682FC7010E947B0FDC
:104B1000B7018D2D0E949D120E94DF0D7C01882E11
:104B2000D8011596AC90159716969C9092943FE0FC
:104B300093228091DF018770F1F0CA2CAA20E1F066
:104B40008F2D807F803451F080E28E0D883098F078
:104B5000911004C08F2D807E803269F08091F60123
:104B600082FF09C082E00E94C50F8091DF0187703B
:104B7000CC24C3948111C12CBF2CB2942FE0B2225B
:104B8000BBE0BB1508F4A6C0EB2DF0E0E356FA4CF1
:104B90000C94EF3381E00E94B80F49CF82E0FBCF45
:104BA000EBE5EE16ECE7FE0659F1FCE5EF16FCE747
:104BB000FF06E1F02AE5E2162CE7F20609F099CFAC
:104BC00081E01BC00E94991D3FEF84E39CE03150BF
:104BD00080409040E1F700C000000E942A046FEF7F
:104BE0007FEF90E080E00E94F13431C28091F601C5
:104BF00082FB882780F991E089270E94912279CF52
:104C000080E0FBCFC7010E94350FD82E81CFEF2D5A
:104C1000EF70DE2E8F2D807F19F0D29490EFD92285
:104C2000AA20B9F0DD2069F080E28E0D883010F006
:104C3000811009C08091EA01D82AD092EA010E942D
:104C40005C1D8E2D45C08091E901D82AD092E901E2
:104C5000F6CF8E2D0E94A520DD20E1F180E28E0DA1
:104C6000883010F0811004C08D2D0E94FD0E06C00A
:104C7000D0948091E901D822D092E9010E945C1D74
:104C800029C0FF2DFF70DF2E8F2D807F803219F01D
:104C9000D29480EFD822882059F021E0821609F4BE
:104CA00081C0AA2009F48DC0992009F44FC0C9CF52
:104CB0008091F60182FD46C0AA20F1F1DD2039F095
:104CC0008091EA01D82AD092EA010E945C1D80E01E
:104CD0000E94E220AB2DA850BB0B149710F40E9449
:104CE000C604CC20A9F08091DF0180FD11C0F8013D
:104CF00015828695869586950E94DC0FC8010E94D4
:104D0000B4228091DF018695869586950E94B80F22
:104D100020E0D8014C9111965C91119712966C91FC
:104D2000129713967C91139714968C91149715965D
:104D30009C910E941B13DECC80E00E94A520DD2008
:104D400049F292CFAA20A1F0911004C08D2D0E94AB
:104D50009B20C0CF31E09312BDCF8091E8019D2D03
:104D60009823D91609F4B6CFD82AD092E801B2CF49
:104D70009110B0CF8D2D0E9494209091E8018D2D3F
:104D8000892329F08D2D809589238093E8018091D6
:104D9000CB019D2D982309F49DCFD094D822D09299
:104DA000CB0198CFAA2029F085E0891508F492CF8D
:104DB000CDCF94E0991508F48DCF8D2D0E949420CD
:104DC00089CF9920D1F3A9E38A1209C0BFEFE7EE9A
:104DD000F3E0B150E040F040E1F700C000008E2D5C
:104DE0000E94A52077CF8F2D86958695837061F0E0
:104DF000813009F06FCFC7019370A11002C080E02D
:104E000090E00E947C0466CFC7019370A11002C09D
:104E100080E090E00E94A1045DCF6A2D8E2D0E945B
:104E2000EB0F58CF8F2D837091F5A11053CF4E2DDE
:104E3000429546954770440F440F8E2D8F70042E77
:104E400001C0880F0A94EAF72E2D2071E4FE07C0F6
:104E50002FE030E001C0220F4A95EAF720953F2D60
:104E6000369536953370323069F050F44091EB014D
:104E7000313029F0822B84230E94E80F2BCF842B22
:104E8000822BFACF282B8091EB018227F5CF8695D4
:104E9000AA2011F08F2D8170882309F41BCF4E2D8D
:104EA000429546954770440F440F8E2D8F70042E07
:104EB00001C0880F0A94EAF72E2D2071E4FE07C086
:104EC0002FE030E001C0220F4A95EAF720953F2DF0
:104ED000369536953370323069F050F440916E0259
:104EE000313029F0822B84230E94950FF3CE842B3E
:104EF000822BFACF282B80916E028227F5CF2F2D9F
:104F00002F70F22EAA2029F0822F0E94DC0F8E2D06
:104F10001ECF8E2D0E9494208F2D0E94B80FDACEC6
:104F20008E2D32EF8316B1F1381570F090EF89169F
:104F3000D1F0A1EF8A1691F0AA2009F45EC0911079
:104F400080CE8F2D8F712AC0B3EF8B1651F1E4EF15
:104F50008E12F2CF8091F60182FD2FC08F2D8F71BE
:104F6000AA20D9F21BC0AA2081F0F4E0F91508F4B8
:104F7000B1CE2F2D2F7181E090E001C0880F2A95CE
:104F8000EAF790916E028927AFCF25E0291508F442
:104F9000A1CEEFCF8F2D8F71A110BFCF0E94DC0F5C
:104FA00099CE80E0AA2009F49FCF9F2D9F7181E0C8
:104FB00001C0880F9A95EAF797CFAA2099F03F2D64
:104FC0003F71F32E832F0E94DC0F8091F60182FF48
:104FD00007C0A8E0FA9EC001112483608093DF011E
:104FE0008F2DDCCF81E00E94C50FB1E0B91508F02C
:104FF00071CE82E00E94C50F6DCE992059F08933A1
:1050000009F0EDCEEFEFF7EE23E0E150F040204065
:10501000E1F7E3CE8F2D8F7180CF82E0B8E7EB16FA
:10502000BCE7FB0609F401CD83E0E8168CE7F8063F
:1050300009F4D5CD08F0B4CDE114ACE7FA0609F4D3
:10504000C1CDB1E0EB16BCE7FB0609F052CD0E94E2
:105050007E20E6E1EE16ECE7FE0609F0DFCC80915B
:10506000EA018A7A91E009F490E09093CA0169E23A
:10507000811165E382EC91E00E9462040E945C1D54
:1050800029CBF6E1EF16FCE7FF0609F4B2CC8091DC
:10509000EA018272F701E052F847E531F10508F0C4
:1050A0001CCDE755FA4C0C94EF33F701E851FC475F
:1050B000E730F10508F4BECB10922B03C7019057DF
:1050C000839738F684E090E00E94BD349093F60117
:1050D0008093F501F701E150F047E232F10508F065
:1050E000CBCBE254FA4C0C94EF33CF93DF93809107
:1050F000DE01807F09F04DC08091DD01882309F435
:1051000048C0E091F3025091BA02C091D901D09108
:10511000D8016091DA017091DB0147E05E17C9F1B7
:105120008E2F90E0E49FF0011124E554FD4F24817F
:10513000222391F1489FF001499FF00D1124DF01D6
:10514000A554BD4F11962C9111972C1325C02C916D
:105150002D1322C015962C91159721111DC0129662
:105160002D913C91261B370B283C3105A8F48091EA
:10517000DE018F7080618093DE01EF53FD4F8081EF
:105180008F708061808388ED91E00E94B4220E943C
:10519000040FDF91CF910895FC013196E770BECFE7
:1051A000A4E1B0E0E6EDF8E20C9402348C0186E074
:1051B000F801DE011F9601900D928A95E1F7F80142
:1051C0008481E58098EDA92E91E0B92E9091DC01C3
:1051D000911128C0882319F1EE20F1F0C8010E9436
:1051E000F812F82E8823C1F087E0F801D50101906C
:1051F0000D928A95E1F78091DC01813031F4809144
:10520000D8019091D9010E94EB120E9475288F2D30
:105210006496ECE00C941E34C8010E94B422FF2472
:10522000F394F5CFD080C18082809380F090DD012F
:105230002091DA013091DB01A401421B530BFF20C6
:1052400009F4D9C0483C510508F092C08823F9F20E
:105250009091D9018091DE01282F207F09F056C05E
:10526000C91214C09091D801D91210C0E11048C0E1
:105270008F7080618093DE0188ED91E00E94B422FE
:105280008091DE01F8018683F12CC1CFE11038C096
:105290006C2D8D2D0E94AE026C2D8D2D0E94AE02C4
:1052A000E82E8111F1CFDF86C88A8F8598890E9408
:1052B000EB12292F22952F70243058F49F70223042
:1052C00088F0992399F0F8019681907F79F4FE2C6B
:1052D0009ECF2A5F2F70223068F0C8010E94B4224E
:1052E000EF2CF5CF992311F0882389F3805E883065
:1052F00070F3F3CF803F58F3815F833070F7E7CFCF
:105300008091DE0181608093DE01BECFC91207C0AB
:105310009091D801D91203C0EE2009F48DC0C801C4
:105320000E94F812882309F477CFEE2009F474CF95
:105330008091DE01803288F02091D8013091D9012E
:10534000398728879B868A869091DC019C871D86F9
:105350008E87CE0108960E94B42287E0F801A8ED5E
:10536000B1E001900D928A95E1F70E94752857CF20
:105370009091DE01292F207F51F488ED91E00E9469
:10538000B42287E0F50111928A95E9F77DCF882351
:1053900009F43DCF8091D9018C1110C08091D801C2
:1053A000D8120CC0E1100AC09683C8010E94B42232
:1053B00087E0F50111928A95E9F729CFC8010E948B
:1053C000F812882309F428CFEE2009F425CF809124
:1053D000DE01803210F22091D8013091D9013A8358
:1053E00029839C828B829091DC019D831E828F8316
:1053F000CE010196B0CF483C5105D0F6882309F480
:105400000ECFFE2CEE2009F407CF8091D9018C112C
:1054100020C08091D801D8121CC08091DE0180FD8F
:105420000FC0982F907F61F08683903F31F0982FC6
:10543000907F905F8F70892B8683C8010E94B42271
:1054400087E0F801A8EDB1E001900D928A95E1F7AF
:10545000DECEC8010E94F81281117FCF8091DE015B
:1054600081608093DE01C8010E94B422D0CEABE1FE
:10547000B0E0EDE3FAE20C940A344E8B5F8B688F58
:10548000798F8A8F9B8F192F91111092E9011D8AB4
:1054900086E0FE017696DE011F9601900D928A95B8
:1054A000E1F70A8D002341F021E04F855889698991
:1054B0007A89C8010E941B130B8B1C8B87E0FE01AD
:1054C0003F96DE01189601900D928A95E1F7CE0184
:1054D00008960E94D02881110CC087E0FE01389602
:1054E000DE01119601900D928A95E1F78C8581116C
:1054F0000BC017E08091F3029091BA02891331C07A
:105500006B96E4E00C9426342091BA0230E0C90195
:105510000196877099274091F3024817190699F070
:1055200097E0929FD001939FB00D1124A554BD4FD9
:10553000FE01319601900D929A95E1F78093BA029F
:105540000E94040FD6CF0E94991D1092BA021092A9
:10555000F30287E0E8EDF1E0DF011D928A95E9F7BB
:10556000C8CF819FC001112485549D4F0E94D0282F
:10557000882331F28091F30290E001968770992799
:105580008093F302B7CFA6E0B0E0E9ECFAE20C9426
:105590000A340E9456048C018091EC019091ED0137
:1055A0008017910781F019821A820E945604682F91
:1055B00049815A81792F80E090E00E94372A109328
:1055C000ED010093EC012696E4E00C942634A8E06B
:1055D000B0E0EDEEFAE20C940C3466EE7EEF90E073
:1055E00080E00E94F13460E082E090E00E94D334D9
:1055F00060E083E090E00E94D3341092EB0160E021
:1056000074E184E090E00E94F13460E086E090E094
:105610000E94D3346FEF87E090E00E94D33440E0E3
:1056200050E0BA0188E090E00E94E53460E084E256
:1056300090E00E94D33460E087E190E00E94D33490
:1056400060E08CE090E00E94D33460E08DE090E078
:105650000E94D33419821A821B821C821D821E82F0
:105660001F82188648E050E068E170E0CE010196A4
:105670000E94C33440E050E0BA0180E290E00E9412
:10568000E53480E00E940D120E94261240E050E0B6
:10569000BA018FE090E00E94E53440E050E0BA01AA
:1056A00083E190E00E94E5342896E2E00C942834EF
:1056B0001F920F920FB60F9211242F933F934F9387
:1056C0005F936F937F938F939F93AF93BF93CF938A
:1056D000DF93EF93FF93D091E900DF708091EC00AE
:1056E000C82FC17080FDC0E81092E9008091F000E1
:1056F000877F8093F00078940E94C01D1092E9008B
:105700008091F00088608093F000CD2BCF70C09323
:10571000E900FF91EF91DF91CF91BF91AF919F9100
:105720008F917F916F915F914F913F912F910F904A
:105730000FBE0F901F9018951F920F920FB60F92E9
:1057400011242F933F934F935F936F937F938F9386
:105750009F93AF93BF93EF93FF938091E10082FFFC
:1057600009C08091E20082FF05C08091E1008B7F3B
:105770008093E1008091DA0080FF24C08091D800FE
:1057800080FF20C08091DA008E7F8093DA008091C4
:10579000D90080FF9DC080E189BD82E189BD09B447
:1057A00000FEFDCF81E08093B0028091A3028111C1
:1057B00009C00E94CD020E946E038091E2008460C5
:1057C0008093E2008091E10080FF17C08091E200A9
:1057D00080FF13C08091E2008E7F8093E200809171
:1057E000E20080618093E2008091D8008062809323
:1057F000D80019BC85E08093B0028091E10084FF5D
:105800002BC08091E20084FF27C080E189BD82E146
:1058100089BD89B5982F917080FFFBCF8091D8000A
:105820008F7D8093D8008091E1008F7E8093E1008E
:105830008091E2008F7E8093E2008091E20081609F
:105840008093E2008091B102882309F447C084E08C
:105850008093B0028091B0028091E10083FF27C065
:105860008091E20083FF23C08091E100877F8093D5
:10587000E10082E08093B0021092B1028091E100D9
:105880008E7F8093E1008091E2008E7F8093E20022
:105890008091E20080618093E20042E060E080E07D
:1058A0000E943C038091F00088608093F000FF919B
:1058B000EF91BF91AF919F918F917F916F915F9188
:1058C0004F913F912F910F900FBE0F901F90189501
:1058D00019BC1092B0021092A30274CF8091E30021
:1058E00087FD93E09093B002B5CF78941F921FB6D6
:1058F0001F9211248F939F93AF93BF9380919F0228
:105900009091A002A091A102B091A2020196A11DC6
:10591000B11D80939F029093A002A093A102B09327
:10592000A202BF91AF919F918F911F901FBE1F90B8
:1059300018951F921FB61F9211248F939F93AF93B8
:10594000BF9380919E02811113C080919F0290911C
:10595000A002A091A102B091A2024196A11DB11D89
:1059600080939F029093A002A093A102B093A20201
:10597000BF91AF919F918F911F901FBE1F9018955F
:10598000CDB7DEB7C954D1090FB6F894DEBF0FBE4C
:10599000CDBF85B7806885BF85B7806885BF84B770
:1059A000877F84BF0FB6F894A895809160008861C6
:1059B00080936000109260000FBE80E890E00FB608
:1059C000F89480936100909361000FBE81EE9CE09B
:1059D0009093C1018093C0010E94CD020E946E038A
:1059E0008091E20084608093E20078948091B0021C
:1059F0008823A1F01091E9001F709091EC00892F8D
:105A0000817090FD80E8182B1092E9008091E800E9
:105A100083FD0E94C01D1F701093E90082E084BDC9
:105A200093E095BD9AEF97BD80936E000E9440135E
:105A3000811102C00E94261283E0809302025DE67B
:105A4000A52E51E0B52E4AE651E08A01950161E0AC
:105A500070E0D9018D919D01E82FE295EF70F0E0A3
:105A6000D1A08F707B0101C0EE0C8A95EAF79E2DC4
:105A700090959D2191A382A18E2982A3F801819105
:105A80008F01E82FE295EF70F0E0D1A08F707B01DD
:105A900001C0EE0C8A95EAF79E2D90959D2191A369
:105AA00082A18E2982A3A057B14099F68FE891E098
:105AB0000197F1F700C000001091020263E072E06C
:105AC000FB018E2F861B811708F457C001E511E0FA
:105AD00046E5E42E41E0F42EF80181918F018F3FDD
